{
  "contractName": "MarketPlace",
  "abi": [
    {
      "constant": true,
      "inputs": [
        {
          "name": "_operator",
          "type": "address"
        },
        {
          "name": "_role",
          "type": "string"
        }
      ],
      "name": "checkRole",
      "outputs": [],
      "payable": false,
      "stateMutability": "view",
      "type": "function"
    },
    {
      "constant": true,
      "inputs": [
        {
          "name": "_operator",
          "type": "address"
        },
        {
          "name": "_role",
          "type": "string"
        }
      ],
      "name": "hasRole",
      "outputs": [
        {
          "name": "",
          "type": "bool"
        }
      ],
      "payable": false,
      "stateMutability": "view",
      "type": "function"
    },
    {
      "constant": true,
      "inputs": [
        {
          "name": "",
          "type": "uint256"
        }
      ],
      "name": "storeOwnersList",
      "outputs": [
        {
          "name": "",
          "type": "address"
        }
      ],
      "payable": false,
      "stateMutability": "view",
      "type": "function"
    },
    {
      "constant": false,
      "inputs": [],
      "name": "unpause",
      "outputs": [],
      "payable": false,
      "stateMutability": "nonpayable",
      "type": "function"
    },
    {
      "constant": true,
      "inputs": [
        {
          "name": "",
          "type": "address"
        }
      ],
      "name": "admins",
      "outputs": [
        {
          "name": "",
          "type": "bool"
        }
      ],
      "payable": false,
      "stateMutability": "view",
      "type": "function"
    },
    {
      "constant": true,
      "inputs": [],
      "name": "paused",
      "outputs": [
        {
          "name": "",
          "type": "bool"
        }
      ],
      "payable": false,
      "stateMutability": "view",
      "type": "function"
    },
    {
      "constant": false,
      "inputs": [],
      "name": "renounceOwnership",
      "outputs": [],
      "payable": false,
      "stateMutability": "nonpayable",
      "type": "function"
    },
    {
      "constant": false,
      "inputs": [],
      "name": "pause",
      "outputs": [],
      "payable": false,
      "stateMutability": "nonpayable",
      "type": "function"
    },
    {
      "constant": true,
      "inputs": [],
      "name": "owner",
      "outputs": [
        {
          "name": "",
          "type": "address"
        }
      ],
      "payable": false,
      "stateMutability": "view",
      "type": "function"
    },
    {
      "constant": true,
      "inputs": [
        {
          "name": "",
          "type": "uint256"
        }
      ],
      "name": "adminsList",
      "outputs": [
        {
          "name": "",
          "type": "address"
        }
      ],
      "payable": false,
      "stateMutability": "view",
      "type": "function"
    },
    {
      "constant": false,
      "inputs": [
        {
          "name": "_newOwner",
          "type": "address"
        }
      ],
      "name": "transferOwnership",
      "outputs": [],
      "payable": false,
      "stateMutability": "nonpayable",
      "type": "function"
    },
    {
      "inputs": [],
      "payable": false,
      "stateMutability": "nonpayable",
      "type": "constructor"
    },
    {
      "anonymous": false,
      "inputs": [],
      "name": "Pause",
      "type": "event"
    },
    {
      "anonymous": false,
      "inputs": [],
      "name": "Unpause",
      "type": "event"
    },
    {
      "anonymous": false,
      "inputs": [
        {
          "indexed": true,
          "name": "previousOwner",
          "type": "address"
        }
      ],
      "name": "OwnershipRenounced",
      "type": "event"
    },
    {
      "anonymous": false,
      "inputs": [
        {
          "indexed": true,
          "name": "previousOwner",
          "type": "address"
        },
        {
          "indexed": true,
          "name": "newOwner",
          "type": "address"
        }
      ],
      "name": "OwnershipTransferred",
      "type": "event"
    },
    {
      "anonymous": false,
      "inputs": [
        {
          "indexed": true,
          "name": "operator",
          "type": "address"
        },
        {
          "indexed": false,
          "name": "role",
          "type": "string"
        }
      ],
      "name": "RoleAdded",
      "type": "event"
    },
    {
      "anonymous": false,
      "inputs": [
        {
          "indexed": true,
          "name": "operator",
          "type": "address"
        },
        {
          "indexed": false,
          "name": "role",
          "type": "string"
        }
      ],
      "name": "RoleRemoved",
      "type": "event"
    },
    {
      "constant": true,
      "inputs": [
        {
          "name": "_address",
          "type": "address"
        },
        {
          "name": "role",
          "type": "string"
        }
      ],
      "name": "accountHasRole",
      "outputs": [
        {
          "name": "",
          "type": "bool"
        }
      ],
      "payable": false,
      "stateMutability": "view",
      "type": "function"
    },
    {
      "constant": false,
      "inputs": [
        {
          "name": "storeOwnerAddress",
          "type": "address"
        }
      ],
      "name": "addStoreOwner",
      "outputs": [
        {
          "name": "success",
          "type": "bool"
        }
      ],
      "payable": false,
      "stateMutability": "nonpayable",
      "type": "function"
    },
    {
      "constant": false,
      "inputs": [
        {
          "name": "storeOwnerAddress",
          "type": "address"
        }
      ],
      "name": "getStoresOfStoreOwner",
      "outputs": [
        {
          "name": "",
          "type": "address[]"
        }
      ],
      "payable": false,
      "stateMutability": "nonpayable",
      "type": "function"
    },
    {
      "constant": false,
      "inputs": [
        {
          "name": "storeName",
          "type": "string"
        }
      ],
      "name": "addStore",
      "outputs": [
        {
          "name": "success",
          "type": "bool"
        }
      ],
      "payable": false,
      "stateMutability": "nonpayable",
      "type": "function"
    },
    {
      "constant": true,
      "inputs": [
        {
          "name": "storeAddress",
          "type": "address"
        }
      ],
      "name": "getStoreName",
      "outputs": [
        {
          "name": "",
          "type": "string"
        }
      ],
      "payable": false,
      "stateMutability": "view",
      "type": "function"
    },
    {
      "constant": true,
      "inputs": [],
      "name": "getAllStores",
      "outputs": [
        {
          "name": "",
          "type": "address[]"
        }
      ],
      "payable": false,
      "stateMutability": "view",
      "type": "function"
    }
  ],
  "bytecode": "0x60806040526000600160146101000a81548160ff0219169083151502179055503480156200002c57600080fd5b5033600160006101000a81548173ffffffffffffffffffffffffffffffffffffffff021916908373ffffffffffffffffffffffffffffffffffffffff16021790555060003373ffffffffffffffffffffffffffffffffffffffff16141515156200009557600080fd5b620000e5336040805190810160405280600581526020017f61646d696e000000000000000000000000000000000000000000000000000000815250620000eb640100000000026401000000009004565b62000292565b6200017a826000836040518082805190602001908083835b6020831015156200012a578051825260208201915060208101905060208303925062000103565b6001836020036101000a0380198251168184511680821785525050505050509050019150509081526020016040518091039020620002346401000000000262001653179091906401000000009004565b8173ffffffffffffffffffffffffffffffffffffffff167fbfec83d64eaa953f2708271a023ab9ee82057f8f3578d548c1a4ba0b5b700489826040518080602001828103825283818151815260200191508051906020019080838360005b83811015620001f5578082015181840152602081019050620001d8565b50505050905090810190601f168015620002235780820380516001836020036101000a031916815260200191505b509250505060405180910390a25050565b60018260000160008373ffffffffffffffffffffffffffffffffffffffff1673ffffffffffffffffffffffffffffffffffffffff16815260200190815260200160002060006101000a81548160ff0219169083151502179055505050565b612f2680620002a26000396000f30060806040526004361062000103576000357c0100000000000000000000000000000000000000000000000000000000900463ffffffff1680630988ca8c1462000108578063217fe6c61462000194578063240c8b7714620002385780633f4ba83a14620002a8578063429b62e514620002c25780635c975abb146200032057806362ab8a2b1462000352578063662feffc14620003f6578063715018a6146200047a5780638456cb5914620004945780638b4bd10514620004ae5780638da5cb5b146200051f5780639adeb5f11462000579578063a470529414620005d7578063bcfaf9781462000647578063f2fde38b1462000709578063fa21ab90146200074f575b600080fd5b3480156200011557600080fd5b5062000192600480360381019080803573ffffffffffffffffffffffffffffffffffffffff169060200190929190803590602001908201803590602001908080601f0160208091040260200160405190810160405280939291908181526020018383808284378201915050505050509192919290505050620007ec565b005b348015620001a157600080fd5b506200021e600480360381019080803573ffffffffffffffffffffffffffffffffffffffff169060200190929190803590602001908201803590602001908080601f016020809104026020016040519081016040528093929190818152602001838380828437820191505050505050919291929050505062000871565b604051808215151515815260200191505060405180910390f35b3480156200024557600080fd5b506200026660048036038101908080359060200190929190505050620008fc565b604051808273ffffffffffffffffffffffffffffffffffffffff1673ffffffffffffffffffffffffffffffffffffffff16815260200191505060405180910390f35b348015620002b557600080fd5b50620002c06200093b565b005b348015620002cf57600080fd5b5062000306600480360381019080803573ffffffffffffffffffffffffffffffffffffffff169060200190929190505050620009fd565b604051808215151515815260200191505060405180910390f35b3480156200032d57600080fd5b506200033862000a1d565b604051808215151515815260200191505060405180910390f35b3480156200035f57600080fd5b50620003dc600480360381019080803573ffffffffffffffffffffffffffffffffffffffff169060200190929190803590602001908201803590602001908080601f016020809104026020016040519081016040528093929190818152602001838380828437820191505050505050919291929050505062000a30565b604051808215151515815260200191505060405180910390f35b3480156200040357600080fd5b5062000460600480360381019080803590602001908201803590602001908080601f016020809104026020016040519081016040528093929190818152602001838380828437820191505050505050919291929050505062000a46565b604051808215151515815260200191505060405180910390f35b3480156200048757600080fd5b506200049262000cc0565b005b348015620004a157600080fd5b50620004ac62000dc6565b005b348015620004bb57600080fd5b50620004c662000e88565b6040518080602001828103825283818151815260200191508051906020019060200280838360005b838110156200050b578082015181840152602081019050620004ee565b505050509050019250505060405180910390f35b3480156200052c57600080fd5b506200053762000f18565b604051808273ffffffffffffffffffffffffffffffffffffffff1673ffffffffffffffffffffffffffffffffffffffff16815260200191505060405180910390f35b3480156200058657600080fd5b50620005bd600480360381019080803573ffffffffffffffffffffffffffffffffffffffff16906020019092919050505062000f3e565b604051808215151515815260200191505060405180910390f35b348015620005e457600080fd5b506200060560048036038101908080359060200190929190505050620010ab565b604051808273ffffffffffffffffffffffffffffffffffffffff1673ffffffffffffffffffffffffffffffffffffffff16815260200191505060405180910390f35b3480156200065457600080fd5b506200068b600480360381019080803573ffffffffffffffffffffffffffffffffffffffff169060200190929190505050620010ea565b6040518080602001828103825283818151815260200191508051906020019080838360005b83811015620006cd578082015181840152602081019050620006b0565b50505050905090810190601f168015620006fb5780820380516001836020036101000a031916815260200191505b509250505060405180910390f35b3480156200071657600080fd5b506200074d600480360381019080803573ffffffffffffffffffffffffffffffffffffffff169060200190929190505050620011ee565b005b3480156200075c57600080fd5b5062000793600480360381019080803573ffffffffffffffffffffffffffffffffffffffff16906020019092919050505062001259565b6040518080602001828103825283818151815260200191508051906020019060200280838360005b83811015620007d8578082015181840152602081019050620007bb565b505050509050019250505060405180910390f35b6200086d826000836040518082805190602001908083835b6020831015156200082b578051825260208201915060208101905060208303925062000804565b6001836020036101000a0380198251168184511680821785525050505050509050019150509081526020016040518091039020620013a690919063ffffffff16565b5050565b6000620008f4836000846040518082805190602001908083835b602083101515620008b257805182526020820191506020810190506020830392506200088b565b6001836020036101000a0380198251168184511680821785525050505050509050019150509081526020016040518091039020620013c290919063ffffffff16565b905092915050565b6004818154811015156200090c57fe5b906000526020600020016000915054906101000a900473ffffffffffffffffffffffffffffffffffffffff1681565b600160009054906101000a900473ffffffffffffffffffffffffffffffffffffffff1673ffffffffffffffffffffffffffffffffffffffff163373ffffffffffffffffffffffffffffffffffffffff161415156200099857600080fd5b600160149054906101000a900460ff161515620009b457600080fd5b6000600160146101000a81548160ff0219169083151502179055507f7805862f689e2f13df9f062ff482ad3ad112aca9e0847911ed832e158c525b3360405160405180910390a1565b60026020528060005260406000206000915054906101000a900460ff1681565b600160149054906101000a900460ff1681565b600062000a3e838362000871565b905092915050565b6000806040805190810160405280600a81526020017f73746f72656f776e65720000000000000000000000000000000000000000000081525062000a8b3382620007ec565b62000acc336040805190810160405280600a81526020017f73746f72656f776e65720000000000000000000000000000000000000000000081525062000871565b151562000ad857600080fd5b338462000ae4620016b1565b808373ffffffffffffffffffffffffffffffffffffffff1673ffffffffffffffffffffffffffffffffffffffff16815260200180602001828103825283818151815260200191508051906020019080838360005b8381101562000b5557808201518184015260208101905062000b38565b50505050905090810190601f16801562000b835780820380516001836020036101000a031916815260200191505b509350505050604051809103906000f08015801562000ba6573d6000803e3d6000fd5b509150600560003373ffffffffffffffffffffffffffffffffffffffff1673ffffffffffffffffffffffffffffffffffffffff1681526020019081526020016000208290806001815401808255809150509060018203906000526020600020016000909192909190916101000a81548173ffffffffffffffffffffffffffffffffffffffff021916908373ffffffffffffffffffffffffffffffffffffffff16021790555050600160068390806001815401808255809150509060018203906000526020600020016000909192909190916101000a81548173ffffffffffffffffffffffffffffffffffffffff021916908373ffffffffffffffffffffffffffffffffffffffff1602179055505050600192505050919050565b600160009054906101000a900473ffffffffffffffffffffffffffffffffffffffff1673ffffffffffffffffffffffffffffffffffffffff163373ffffffffffffffffffffffffffffffffffffffff1614151562000d1d57600080fd5b600160009054906101000a900473ffffffffffffffffffffffffffffffffffffffff1673ffffffffffffffffffffffffffffffffffffffff167ff8df31144d9c2f0f6b59d69b8b98abd5459d07f2742c4df920b25aae33c6482060405160405180910390a26000600160006101000a81548173ffffffffffffffffffffffffffffffffffffffff021916908373ffffffffffffffffffffffffffffffffffffffff160217905550565b600160009054906101000a900473ffffffffffffffffffffffffffffffffffffffff1673ffffffffffffffffffffffffffffffffffffffff163373ffffffffffffffffffffffffffffffffffffffff1614151562000e2357600080fd5b600160149054906101000a900460ff1615151562000e4057600080fd5b60018060146101000a81548160ff0219169083151502179055507f6985a02210a168e66602d3235cb6db0e70f92b3ba4d376a33c0f3d9434bff62560405160405180910390a1565b6060600680548060200260200160405190810160405280929190818152602001828054801562000f0e57602002820191906000526020600020905b8160009054906101000a900473ffffffffffffffffffffffffffffffffffffffff1673ffffffffffffffffffffffffffffffffffffffff168152602001906001019080831162000ec3575b5050505050905090565b600160009054906101000a900473ffffffffffffffffffffffffffffffffffffffff1681565b60006040805190810160405280600581526020017f61646d696e00000000000000000000000000000000000000000000000000000081525062000f823382620007ec565b60008373ffffffffffffffffffffffffffffffffffffffff161415151562000fa957600080fd5b62000fea836040805190810160405280600a81526020017f73746f72656f776e65720000000000000000000000000000000000000000000081525062000871565b15151562000ff757600080fd5b62001038836040805190810160405280600a81526020017f73746f72656f776e6572000000000000000000000000000000000000000000008152506200141b565b600160048490806001815401808255809150509060018203906000526020600020016000909192909190916101000a81548173ffffffffffffffffffffffffffffffffffffffff021916908373ffffffffffffffffffffffffffffffffffffffff16021790555050506001915050919050565b600381815481101515620010bb57fe5b906000526020600020016000915054906101000a900473ffffffffffffffffffffffffffffffffffffffff1681565b60608173ffffffffffffffffffffffffffffffffffffffff1663d460a4ca6040518163ffffffff167c0100000000000000000000000000000000000000000000000000000000028152600401600060405180830381600087803b1580156200115157600080fd5b505af115801562001166573d6000803e3d6000fd5b505050506040513d6000823e3d601f19601f8201168201806040525060208110156200119157600080fd5b810190808051640100000000811115620011aa57600080fd5b82810190506020810184811115620011c157600080fd5b8151856001820283011164010000000082111715620011df57600080fd5b50509291905050509050919050565b600160009054906101000a900473ffffffffffffffffffffffffffffffffffffffff1673ffffffffffffffffffffffffffffffffffffffff163373ffffffffffffffffffffffffffffffffffffffff161415156200124b57600080fd5b620012568162001556565b50565b60606040805190810160405280600a81526020017f73746f72656f776e6572000000000000000000000000000000000000000000008152506200129d3382620007ec565b8273ffffffffffffffffffffffffffffffffffffffff163373ffffffffffffffffffffffffffffffffffffffff16141515620012d857600080fd5b600560008473ffffffffffffffffffffffffffffffffffffffff1673ffffffffffffffffffffffffffffffffffffffff1681526020019081526020016000208054806020026020016040519081016040528092919081815260200182805480156200139957602002820191906000526020600020905b8160009054906101000a900473ffffffffffffffffffffffffffffffffffffffff1673ffffffffffffffffffffffffffffffffffffffff16815260200190600101908083116200134e575b5050505050915050919050565b620013b28282620013c2565b1515620013be57600080fd5b5050565b60008260000160008373ffffffffffffffffffffffffffffffffffffffff1673ffffffffffffffffffffffffffffffffffffffff16815260200190815260200160002060009054906101000a900460ff16905092915050565b6200149c826000836040518082805190602001908083835b6020831015156200145a578051825260208201915060208101905060208303925062001433565b6001836020036101000a03801982511681845116808217855250505050505090500191505090815260200160405180910390206200165390919063ffffffff16565b8173ffffffffffffffffffffffffffffffffffffffff167fbfec83d64eaa953f2708271a023ab9ee82057f8f3578d548c1a4ba0b5b700489826040518080602001828103825283818151815260200191508051906020019080838360005b8381101562001517578082015181840152602081019050620014fa565b50505050905090810190601f168015620015455780820380516001836020036101000a031916815260200191505b509250505060405180910390a25050565b600073ffffffffffffffffffffffffffffffffffffffff168173ffffffffffffffffffffffffffffffffffffffff16141515156200159357600080fd5b8073ffffffffffffffffffffffffffffffffffffffff16600160009054906101000a900473ffffffffffffffffffffffffffffffffffffffff1673ffffffffffffffffffffffffffffffffffffffff167f8be0079c531659141344cd1fd0a4f28419497f9722a3daafe3b4186f6b6457e060405160405180910390a380600160006101000a81548173ffffffffffffffffffffffffffffffffffffffff021916908373ffffffffffffffffffffffffffffffffffffffff16021790555050565b60018260000160008373ffffffffffffffffffffffffffffffffffffffff1673ffffffffffffffffffffffffffffffffffffffff16815260200190815260200160002060006101000a81548160ff0219169083151502179055505050565b60405161183880620016c3833901905600608060405260008060146101000a81548160ff0219169083151502179055503480156200002b57600080fd5b5060405162001838380380620018388339810180604052810190808051906020019092919080518201929190505050336000806101000a81548173ffffffffffffffffffffffffffffffffffffffff021916908373ffffffffffffffffffffffffffffffffffffffff16021790555081600160006101000a81548173ffffffffffffffffffffffffffffffffffffffff021916908373ffffffffffffffffffffffffffffffffffffffff1602179055508060029080519060200190620000f39291906200010c565b50600060038190555060006004819055505050620001bb565b828054600181600116156101000203166002900490600052602060002090601f016020900481019282601f106200014f57805160ff191683800117855562000180565b8280016001018555821562000180579182015b828111156200017f57825182559160200191906001019062000162565b5b5090506200018f919062000193565b5090565b620001b891905b80821115620001b45760008160009055506001016200019a565b5090565b90565b61166d80620001cb6000396000f3006080604052600436106100fc576000357c0100000000000000000000000000000000000000000000000000000000900463ffffffff1680633ccfd60b146101015780633f4ba83a14610118578063521936e61461012f57806353b62866146101bf5780635c975abb14610201578063715018a6146102305780637acc0b2014610247578063818fb3e0146102935780638456cb59146102ea57806387934b39146103015780638da5cb5b146103a05780639c3bddb2146103f7578063b69ef8a814610446578063b9db15b414610471578063ca15d64a14610525578063d460a4ca146105c3578063e0f6ef8714610653578063f2fde38b1461067e575b600080fd5b34801561010d57600080fd5b506101166106c1565b005b34801561012457600080fd5b5061012d61083a565b005b34801561013b57600080fd5b506101446108f8565b6040518080602001828103825283818151815260200191508051906020019080838360005b83811015610184578082015181840152602081019050610169565b50505050905090810190601f1680156101b15780820380516001836020036101000a031916815260200191505b509250505060405180910390f35b6101e76004803603810190808035906020019092919080359060200190929190505050610996565b604051808215151515815260200191505060405180910390f35b34801561020d57600080fd5b50610216610b49565b604051808215151515815260200191505060405180910390f35b34801561023c57600080fd5b50610245610b5c565b005b34801561025357600080fd5b5061027260048036038101908080359060200190929190505050610c5e565b60405180838152602001821515151581526020019250505060405180910390f35b34801561029f57600080fd5b506102a8610d5a565b604051808273ffffffffffffffffffffffffffffffffffffffff1673ffffffffffffffffffffffffffffffffffffffff16815260200191505060405180910390f35b3480156102f657600080fd5b506102ff610d80565b005b34801561030d57600080fd5b5061038660048036038101908080359060200190929190803590602001908201803590602001908080601f01602080910402602001604051908101604052809392919081815260200183838082843782019150505050505091929192908035906020019092919080359060200190929190505050610e40565b604051808215151515815260200191505060405180910390f35b3480156103ac57600080fd5b506103b5610fc6565b604051808273ffffffffffffffffffffffffffffffffffffffff1673ffffffffffffffffffffffffffffffffffffffff16815260200191505060405180910390f35b34801561040357600080fd5b5061042c6004803603810190808035906020019092919080359060200190929190505050610feb565b604051808215151515815260200191505060405180910390f35b34801561045257600080fd5b5061045b611102565b6040518082815260200191505060405180910390f35b34801561047d57600080fd5b5061049c60048036038101908080359060200190929190505050611108565b6040518080602001848152602001838152602001828103825285818151815260200191508051906020019080838360005b838110156104e85780820151818401526020810190506104cd565b50505050905090810190601f1680156105155780820380516001836020036101000a031916815260200191505b5094505050505060405180910390f35b34801561053157600080fd5b5061053a611239565b6040518080602001848152602001838152602001828103825285818151815260200191508051906020019080838360005b8381101561058657808201518184015260208101905061056b565b50505050905090810190601f1680156105b35780820380516001836020036101000a031916815260200191505b5094505050505060405180910390f35b3480156105cf57600080fd5b506105d86112ed565b6040518080602001828103825283818151815260200191508051906020019080838360005b838110156106185780820151818401526020810190506105fd565b50505050905090810190601f1680156106455780820380516001836020036101000a031916815260200191505b509250505060405180910390f35b34801561065f57600080fd5b5061066861138f565b6040518082815260200191505060405180910390f35b34801561068a57600080fd5b506106bf600480360381019080803573ffffffffffffffffffffffffffffffffffffffff169060200190929190505050611395565b005b6000600160009054906101000a900473ffffffffffffffffffffffffffffffffffffffff1673ffffffffffffffffffffffffffffffffffffffff163373ffffffffffffffffffffffffffffffffffffffff1614151561071f57600080fd5b600660008060009054906101000a900473ffffffffffffffffffffffffffffffffffffffff1673ffffffffffffffffffffffffffffffffffffffff1673ffffffffffffffffffffffffffffffffffffffff1681526020019081526020016000205490506000600660008060009054906101000a900473ffffffffffffffffffffffffffffffffffffffff1673ffffffffffffffffffffffffffffffffffffffff1673ffffffffffffffffffffffffffffffffffffffff1681526020019081526020016000208190555060006003819055503373ffffffffffffffffffffffffffffffffffffffff166108fc829081150290604051600060405180830381858888f19350505050158015610836573d6000803e3d6000fd5b5050565b6000809054906101000a900473ffffffffffffffffffffffffffffffffffffffff1673ffffffffffffffffffffffffffffffffffffffff163373ffffffffffffffffffffffffffffffffffffffff1614151561089557600080fd5b600060149054906101000a900460ff1615156108b057600080fd5b60008060146101000a81548160ff0219169083151502179055507f7805862f689e2f13df9f062ff482ad3ad112aca9e0847911ed832e158c525b3360405160405180910390a1565b60028054600181600116156101000203166002900480601f01602080910402602001604051908101604052809291908181526020018280546001816001161561010002031660029004801561098e5780601f106109635761010080835404028352916020019161098e565b820191906000526020600020905b81548152906001019060200180831161097157829003601f168201915b505050505081565b600080600060149054906101000a900460ff161515156109b557600080fd5b6109e18360056000878152602001908152602001600020600001600201546113fc90919063ffffffff16565b9050803410158015610a0c575082600560008681526020019081526020016000206000016003015410155b15610b3d57610a263460035461143490919063ffffffff16565b600381905550610a5883600560008781526020019081526020016000206000016003015461145090919063ffffffff16565b6005600086815260200190815260200160002060000160030181905550600354600660008060009054906101000a900473ffffffffffffffffffffffffffffffffffffffff1673ffffffffffffffffffffffffffffffffffffffff1673ffffffffffffffffffffffffffffffffffffffff168152602001908152602001600020819055507f8822d705ed7af5f1ee8352bdc64a282c883a6158bde34619a31afdf8cd3ec9f1846005600087815260200190815260200160002060000160030154604051808381526020018281526020019250505060405180910390a160019150610b42565b600091505b5092915050565b600060149054906101000a900460ff1681565b6000809054906101000a900473ffffffffffffffffffffffffffffffffffffffff1673ffffffffffffffffffffffffffffffffffffffff163373ffffffffffffffffffffffffffffffffffffffff16141515610bb757600080fd5b6000809054906101000a900473ffffffffffffffffffffffffffffffffffffffff1673ffffffffffffffffffffffffffffffffffffffff167ff8df31144d9c2f0f6b59d69b8b98abd5459d07f2742c4df920b25aae33c6482060405160405180910390a260008060006101000a81548173ffffffffffffffffffffffffffffffffffffffff021916908373ffffffffffffffffffffffffffffffffffffffff160217905550565b6005602052806000526040600020600091509050806000016080604051908101604052908160008201548152602001600182018054600181600116156101000203166002900480601f016020809104026020016040519081016040528092919081815260200182805460018160011615610100020316600290048015610d255780601f10610cfa57610100808354040283529160200191610d25565b820191906000526020600020905b815481529060010190602001808311610d0857829003601f168201915b5050505050815260200160028201548152602001600382015481525050908060040160009054906101000a900460ff16905082565b600160009054906101000a900473ffffffffffffffffffffffffffffffffffffffff1681565b6000809054906101000a900473ffffffffffffffffffffffffffffffffffffffff1673ffffffffffffffffffffffffffffffffffffffff163373ffffffffffffffffffffffffffffffffffffffff16141515610ddb57600080fd5b600060149054906101000a900460ff16151515610df757600080fd5b6001600060146101000a81548160ff0219169083151502179055507f6985a02210a168e66602d3235cb6db0e70f92b3ba4d376a33c0f3d9434bff62560405160405180910390a1565b6000610e4a611573565b600160009054906101000a900473ffffffffffffffffffffffffffffffffffffffff1673ffffffffffffffffffffffffffffffffffffffff163373ffffffffffffffffffffffffffffffffffffffff16141515610ea657600080fd5b600060149054906101000a900460ff16151515610ec257600080fd5b608060405190810160405280878152602001868152602001858152602001848152509050610eef81611469565b15610fb8578060056000888152602001908152602001600020600001600082015181600001556020820151816001019080519060200190610f3192919061159c565b50604082015181600201556060820151816003015590505060016005600088815260200190815260200160002060040160006101000a81548160ff0219169083151502179055507f4fc9d5acc453e78e01b205af5788a1c62f195c4b5cdc8eb8f1c670863b7e736a866040518082815260200191505060405180910390a160019150610fbd565b600091505b50949350505050565b6000809054906101000a900473ffffffffffffffffffffffffffffffffffffffff1681565b6000600160009054906101000a900473ffffffffffffffffffffffffffffffffffffffff1673ffffffffffffffffffffffffffffffffffffffff163373ffffffffffffffffffffffffffffffffffffffff1614151561104957600080fd5b600060149054906101000a900460ff1615151561106557600080fd5b600115156005600085815260200190815260200160002060040160009054906101000a900460ff16151514151561109b57600080fd5b8160056000858152602001908152602001600020600001600201819055507f76f50c1b11fef3f41d01f801097db5d7503b7194c5db4a88600d8a8be235db7c8383604051808381526020018281526020019250505060405180910390a16001905092915050565b60035481565b6060600080600115156005600086815260200190815260200160002060040160009054906101000a900460ff16151514151561114357600080fd5b6005600085815260200190815260200160002060000160010160056000868152602001908152602001600020600001600201546005600087815260200190815260200160002060000160030154828054600181600116156101000203166002900480601f0160208091040260200160405190810160405280929190818152602001828054600181600116156101000203166002900480156112255780601f106111fa57610100808354040283529160200191611225565b820191906000526020600020905b81548152906001019060200180831161120857829003601f168201915b505050505092509250925092509193909250565b60606000806002600354600454828054600181600116156101000203166002900480601f0160208091040260200160405190810160405280929190818152602001828054600181600116156101000203166002900480156112db5780601f106112b0576101008083540402835291602001916112db565b820191906000526020600020905b8154815290600101906020018083116112be57829003601f168201915b50505050509250925092509250909192565b606060028054600181600116156101000203166002900480601f0160208091040260200160405190810160405280929190818152602001828054600181600116156101000203166002900480156113855780601f1061135a57610100808354040283529160200191611385565b820191906000526020600020905b81548152906001019060200180831161136857829003601f168201915b5050505050905090565b60045481565b6000809054906101000a900473ffffffffffffffffffffffffffffffffffffffff1673ffffffffffffffffffffffffffffffffffffffff163373ffffffffffffffffffffffffffffffffffffffff161415156113f057600080fd5b6113f981611479565b50565b60008083141561140f576000905061142e565b818302905081838281151561142057fe5b0414151561142a57fe5b8090505b92915050565b6000818301905082811015151561144757fe5b80905092915050565b600082821115151561145e57fe5b818303905092915050565b6000808260400151119050919050565b600073ffffffffffffffffffffffffffffffffffffffff168173ffffffffffffffffffffffffffffffffffffffff16141515156114b557600080fd5b8073ffffffffffffffffffffffffffffffffffffffff166000809054906101000a900473ffffffffffffffffffffffffffffffffffffffff1673ffffffffffffffffffffffffffffffffffffffff167f8be0079c531659141344cd1fd0a4f28419497f9722a3daafe3b4186f6b6457e060405160405180910390a3806000806101000a81548173ffffffffffffffffffffffffffffffffffffffff021916908373ffffffffffffffffffffffffffffffffffffffff16021790555050565b608060405190810160405280600081526020016060815260200160008152602001600081525090565b828054600181600116156101000203166002900490600052602060002090601f016020900481019282601f106115dd57805160ff191683800117855561160b565b8280016001018555821561160b579182015b8281111561160a5782518255916020019190600101906115ef565b5b509050611618919061161c565b5090565b61163e91905b8082111561163a576000816000905550600101611622565b5090565b905600a165627a7a7230582055a0cf68a11ff69aaf2f8b1380d78cfb6c6631567189e848b1845e37ee393e210029a165627a7a723058204b0c563eb97c6fe8178a08eb2c01913ab5b4b747963439d23ab5b6ae4e9402150029",
  "source": "pragma solidity ^0.4.2;\r\nimport \"./Store.sol\";\r\nimport \"openzeppelin-solidity/contracts/ownership/Ownable.sol\";\r\nimport \"openzeppelin-solidity/contracts/access/rbac/RBAC.sol\";\r\nimport \"openzeppelin-solidity/contracts/lifecycle/Pausable.sol\";\r\n\r\n/**\r\n * @title MarketPlace\r\n * @dev Marketplace and store factory\r\n */\r\n\r\ncontract MarketPlace is RBAC, Ownable, Pausable {\r\n    \r\n    string constant ROLE_STOREOWNER = \"storeowner\";\r\n    string constant ROLE_OWNER = \"owner\";\r\n    string constant ROLE_ADMIN = \"admin\";\r\n   \r\n    // Admin\r\n    mapping(address => bool) public admins;\r\n    address[] public adminsList;\r\n    \r\n    //StorOwners\r\n    address[] public storeOwnersList;\r\n    \r\n    mapping(address => address[]) stores;\r\n    address[] storeList;\r\n    \r\n    \r\n    constructor() public {\r\n        require(msg.sender != 0);\r\n        addRole(msg.sender, ROLE_ADMIN);\r\n        \r\n    }    \r\n    \r\n    function accountHasRole (address _address, string role) view public returns (bool) {\r\n        return hasRole(_address,role);\r\n    }\r\n    \r\n    function addStoreOwner(address storeOwnerAddress) public onlyRole(ROLE_ADMIN) returns(bool success) {\r\n        require(storeOwnerAddress != 0);\r\n        require(!hasRole(storeOwnerAddress,ROLE_STOREOWNER));\r\n        addRole(storeOwnerAddress, ROLE_STOREOWNER);\r\n        storeOwnersList.push(storeOwnerAddress) - 1;\r\n        return true;\r\n    }    \r\n    \r\n   function getStoresOfStoreOwner(address storeOwnerAddress)  public onlyRole(ROLE_STOREOWNER)\r\n    returns (address[]) \r\n    {\r\n        require(msg.sender == storeOwnerAddress);\r\n        return stores[storeOwnerAddress];\r\n    }\r\n    \r\n    function addStore(string storeName) public onlyRole(ROLE_STOREOWNER) returns(bool success){\r\n        require(hasRole(msg.sender,ROLE_STOREOWNER));\r\n        //require(storeName.length != 0, \"Store name can not be empty\");\r\n        address storecontract = new Store(msg.sender,storeName);\r\n        stores[msg.sender].push(storecontract);\r\n        storeList.push(storecontract) - 1;\r\n        return true;\r\n    }\r\n    \r\n    function getStoreName(address storeAddress) view public returns(string){\r\n        return Store(storeAddress).getStoreName();\r\n    }\r\n\r\n    function getAllStores() view public returns (address[]){\r\n        return storeList;\r\n    }\r\n    \r\n        /*\r\n    *  Admin Functions\r\n    */\r\n    \r\n    /*function addAdmin(address adminAddress) public onlyAdmin {\r\n        require(adminAddress != 0);\r\n        require(!hasRole(adminAddress,ROLE_ADMIN));\r\n        admins[adminAddress].isEntity = true;\r\n        admins[adminAddress].listPointer = adminsList.push(adminAddress) - 1;\r\n       // addRole(adminAddress, ROLE_ADMIN);\r\n    }\r\n    \r\n    function getAdmins()  \r\n    public onlyAdmin \r\n    returns (address[]) \r\n    {\r\n        return adminsList;\r\n    }\r\n    \r\n    \r\n    \r\n    function getStoreOwners()  \r\n    public onlyAdmin \r\n    returns (address[]) \r\n    {\r\n        return storeOwnersList;\r\n    }\r\n     */\r\n    \r\n}",
  "sourcePath": "C:\\Users\\Rodrigo\\Documents\\Consensys\\react-auth\\contracts\\MarketPlace.sol",
  "compiler": {
    "name": "solc",
    "version": "0.4.24+commit.e67f0147.Emscripten.clang"
  },
  "schemaVersion": "2.0.1",
  "updatedAt": "2018-08-27T23:07:54.821Z"
}