{
  "contractName": "MarketPlace",
  "abi": [
    {
      "constant": true,
      "inputs": [
        {
          "name": "_operator",
          "type": "address"
        },
        {
          "name": "_role",
          "type": "string"
        }
      ],
      "name": "checkRole",
      "outputs": [],
      "payable": false,
      "stateMutability": "view",
      "type": "function"
    },
    {
      "constant": true,
      "inputs": [
        {
          "name": "_operator",
          "type": "address"
        },
        {
          "name": "_role",
          "type": "string"
        }
      ],
      "name": "hasRole",
      "outputs": [
        {
          "name": "",
          "type": "bool"
        }
      ],
      "payable": false,
      "stateMutability": "view",
      "type": "function"
    },
    {
      "constant": true,
      "inputs": [
        {
          "name": "",
          "type": "uint256"
        }
      ],
      "name": "storeOwnersList",
      "outputs": [
        {
          "name": "",
          "type": "address"
        }
      ],
      "payable": false,
      "stateMutability": "view",
      "type": "function"
    },
    {
      "constant": true,
      "inputs": [
        {
          "name": "",
          "type": "address"
        }
      ],
      "name": "admins",
      "outputs": [
        {
          "name": "",
          "type": "bool"
        }
      ],
      "payable": false,
      "stateMutability": "view",
      "type": "function"
    },
    {
      "constant": false,
      "inputs": [],
      "name": "renounceOwnership",
      "outputs": [],
      "payable": false,
      "stateMutability": "nonpayable",
      "type": "function"
    },
    {
      "constant": true,
      "inputs": [],
      "name": "owner",
      "outputs": [
        {
          "name": "",
          "type": "address"
        }
      ],
      "payable": false,
      "stateMutability": "view",
      "type": "function"
    },
    {
      "constant": true,
      "inputs": [
        {
          "name": "",
          "type": "uint256"
        }
      ],
      "name": "adminsList",
      "outputs": [
        {
          "name": "",
          "type": "address"
        }
      ],
      "payable": false,
      "stateMutability": "view",
      "type": "function"
    },
    {
      "constant": false,
      "inputs": [
        {
          "name": "_newOwner",
          "type": "address"
        }
      ],
      "name": "transferOwnership",
      "outputs": [],
      "payable": false,
      "stateMutability": "nonpayable",
      "type": "function"
    },
    {
      "inputs": [],
      "payable": true,
      "stateMutability": "payable",
      "type": "constructor"
    },
    {
      "anonymous": false,
      "inputs": [
        {
          "indexed": true,
          "name": "previousOwner",
          "type": "address"
        }
      ],
      "name": "OwnershipRenounced",
      "type": "event"
    },
    {
      "anonymous": false,
      "inputs": [
        {
          "indexed": true,
          "name": "previousOwner",
          "type": "address"
        },
        {
          "indexed": true,
          "name": "newOwner",
          "type": "address"
        }
      ],
      "name": "OwnershipTransferred",
      "type": "event"
    },
    {
      "anonymous": false,
      "inputs": [
        {
          "indexed": true,
          "name": "operator",
          "type": "address"
        },
        {
          "indexed": false,
          "name": "role",
          "type": "string"
        }
      ],
      "name": "RoleAdded",
      "type": "event"
    },
    {
      "anonymous": false,
      "inputs": [
        {
          "indexed": true,
          "name": "operator",
          "type": "address"
        },
        {
          "indexed": false,
          "name": "role",
          "type": "string"
        }
      ],
      "name": "RoleRemoved",
      "type": "event"
    },
    {
      "constant": true,
      "inputs": [
        {
          "name": "_address",
          "type": "address"
        },
        {
          "name": "role",
          "type": "string"
        }
      ],
      "name": "accountHasRole",
      "outputs": [
        {
          "name": "",
          "type": "bool"
        }
      ],
      "payable": false,
      "stateMutability": "view",
      "type": "function"
    },
    {
      "constant": false,
      "inputs": [
        {
          "name": "storeOwnerAddress",
          "type": "address"
        }
      ],
      "name": "addStoreOwner",
      "outputs": [
        {
          "name": "success",
          "type": "bool"
        }
      ],
      "payable": false,
      "stateMutability": "nonpayable",
      "type": "function"
    },
    {
      "constant": true,
      "inputs": [
        {
          "name": "storeOwnerAddress",
          "type": "address"
        }
      ],
      "name": "getStoresOfStoreOwner",
      "outputs": [
        {
          "name": "",
          "type": "address[]"
        }
      ],
      "payable": false,
      "stateMutability": "view",
      "type": "function"
    },
    {
      "constant": false,
      "inputs": [
        {
          "name": "storeName",
          "type": "string"
        }
      ],
      "name": "addStore",
      "outputs": [
        {
          "name": "",
          "type": "uint256"
        }
      ],
      "payable": false,
      "stateMutability": "nonpayable",
      "type": "function"
    },
    {
      "constant": true,
      "inputs": [
        {
          "name": "storeAddress",
          "type": "address"
        }
      ],
      "name": "getStoreName",
      "outputs": [
        {
          "name": "",
          "type": "string"
        }
      ],
      "payable": false,
      "stateMutability": "view",
      "type": "function"
    }
  ],
  "bytecode": "0x608060405233600160006101000a81548173ffffffffffffffffffffffffffffffffffffffff021916908373ffffffffffffffffffffffffffffffffffffffff16021790555060003373ffffffffffffffffffffffffffffffffffffffff161415151561006b57600080fd5b6100b9336040805190810160405280600581526020017f61646d696e0000000000000000000000000000000000000000000000000000008152506100be640100000000026401000000009004565b61025d565b610148826000836040518082805190602001908083835b6020831015156100fa57805182526020820191506020810190506020830392506100d5565b6001836020036101000a03801982511681845116808217855250505050505090500191505090815260200160405180910390206101ff64010000000002611171179091906401000000009004565b8173ffffffffffffffffffffffffffffffffffffffff167fbfec83d64eaa953f2708271a023ab9ee82057f8f3578d548c1a4ba0b5b700489826040518080602001828103825283818151815260200191508051906020019080838360005b838110156101c15780820151818401526020810190506101a6565b50505050905090810190601f1680156101ee5780820380516001836020036101000a031916815260200191505b509250505060405180910390a25050565b60018260000160008373ffffffffffffffffffffffffffffffffffffffff1673ffffffffffffffffffffffffffffffffffffffff16815260200190815260200160002060006101000a81548160ff0219169083151502179055505050565b6114f88061026c6000396000f3006080604052600436106100c5576000357c0100000000000000000000000000000000000000000000000000000000900463ffffffff1680630988ca8c146100ca578063217fe6c614610153578063240c8b77146101f4578063429b62e51461026157806362ab8a2b146102bc578063662feffc1461035d578063715018a6146103da5780638da5cb5b146103f15780639adeb5f114610448578063a4705294146104a3578063bcfaf97814610510578063f2fde38b146105cc578063fa21ab901461060f575b600080fd5b3480156100d657600080fd5b50610151600480360381019080803573ffffffffffffffffffffffffffffffffffffffff169060200190929190803590602001908201803590602001908080601f01602080910402602001604051908101604052809392919081815260200183838082843782019150505050505091929192905050506106a7565b005b34801561015f57600080fd5b506101da600480360381019080803573ffffffffffffffffffffffffffffffffffffffff169060200190929190803590602001908201803590602001908080601f0160208091040260200160405190810160405280939291908181526020018383808284378201915050505050509192919290505050610728565b604051808215151515815260200191505060405180910390f35b34801561020057600080fd5b5061021f600480360381019080803590602001909291905050506107af565b604051808273ffffffffffffffffffffffffffffffffffffffff1673ffffffffffffffffffffffffffffffffffffffff16815260200191505060405180910390f35b34801561026d57600080fd5b506102a2600480360381019080803573ffffffffffffffffffffffffffffffffffffffff1690602001909291905050506107ed565b604051808215151515815260200191505060405180910390f35b3480156102c857600080fd5b50610343600480360381019080803573ffffffffffffffffffffffffffffffffffffffff169060200190929190803590602001908201803590602001908080601f016020809104026020016040519081016040528093929190818152602001838380828437820191505050505050919291929050505061080d565b604051808215151515815260200191505060405180910390f35b34801561036957600080fd5b506103c4600480360381019080803590602001908201803590602001908080601f0160208091040260200160405190810160405280939291908181526020018383808284378201915050505050509192919290505050610821565b6040518082815260200191505060405180910390f35b3480156103e657600080fd5b506103ef6109ce565b005b3480156103fd57600080fd5b50610406610ad3565b604051808273ffffffffffffffffffffffffffffffffffffffff1673ffffffffffffffffffffffffffffffffffffffff16815260200191505060405180910390f35b34801561045457600080fd5b50610489600480360381019080803573ffffffffffffffffffffffffffffffffffffffff169060200190929190505050610af9565b604051808215151515815260200191505060405180910390f35b3480156104af57600080fd5b506104ce60048036038101908080359060200190929190505050610c5e565b604051808273ffffffffffffffffffffffffffffffffffffffff1673ffffffffffffffffffffffffffffffffffffffff16815260200191505060405180910390f35b34801561051c57600080fd5b50610551600480360381019080803573ffffffffffffffffffffffffffffffffffffffff169060200190929190505050610c9c565b6040518080602001828103825283818151815260200191508051906020019080838360005b83811015610591578082015181840152602081019050610576565b50505050905090810190601f1680156105be5780820380516001836020036101000a031916815260200191505b509250505060405180910390f35b3480156105d857600080fd5b5061060d600480360381019080803573ffffffffffffffffffffffffffffffffffffffff169060200190929190505050610d9a565b005b34801561061b57600080fd5b50610650600480360381019080803573ffffffffffffffffffffffffffffffffffffffff169060200190929190505050610e02565b6040518080602001828103825283818151815260200191508051906020019060200280838360005b83811015610693578082015181840152602081019050610678565b505050509050019250505060405180910390f35b610724826000836040518082805190602001908083835b6020831015156106e357805182526020820191506020810190506020830392506106be565b6001836020036101000a0380198251168184511680821785525050505050509050019150509081526020016040518091039020610ecf90919063ffffffff16565b5050565b60006107a7836000846040518082805190602001908083835b6020831015156107665780518252602082019150602081019050602083039250610741565b6001836020036101000a0380198251168184511680821785525050505050509050019150509081526020016040518091039020610ee890919063ffffffff16565b905092915050565b6004818154811015156107be57fe5b906000526020600020016000915054906101000a900473ffffffffffffffffffffffffffffffffffffffff1681565b60026020528060005260406000206000915054906101000a900460ff1681565b60006108198383610728565b905092915050565b6000808261082d6111cf565b8080602001828103825283818151815260200191508051906020019080838360005b8381101561086a57808201518184015260208101905061084f565b50505050905090810190601f1680156108975780820380516001836020036101000a031916815260200191505b5092505050604051809103906000f0801580156108b8573d6000803e3d6000fd5b509050600560003373ffffffffffffffffffffffffffffffffffffffff1673ffffffffffffffffffffffffffffffffffffffff1681526020019081526020016000208190806001815401808255809150509060018203906000526020600020016000909192909190916101000a81548173ffffffffffffffffffffffffffffffffffffffff021916908373ffffffffffffffffffffffffffffffffffffffff16021790555050600160068290806001815401808255809150509060018203906000526020600020016000909192909190916101000a81548173ffffffffffffffffffffffffffffffffffffffff021916908373ffffffffffffffffffffffffffffffffffffffff16021790555003915050919050565b600160009054906101000a900473ffffffffffffffffffffffffffffffffffffffff1673ffffffffffffffffffffffffffffffffffffffff163373ffffffffffffffffffffffffffffffffffffffff16141515610a2a57600080fd5b600160009054906101000a900473ffffffffffffffffffffffffffffffffffffffff1673ffffffffffffffffffffffffffffffffffffffff167ff8df31144d9c2f0f6b59d69b8b98abd5459d07f2742c4df920b25aae33c6482060405160405180910390a26000600160006101000a81548173ffffffffffffffffffffffffffffffffffffffff021916908373ffffffffffffffffffffffffffffffffffffffff160217905550565b600160009054906101000a900473ffffffffffffffffffffffffffffffffffffffff1681565b60006040805190810160405280600581526020017f61646d696e000000000000000000000000000000000000000000000000000000815250610b3b33826106a7565b60008373ffffffffffffffffffffffffffffffffffffffff1614151515610b6157600080fd5b610ba0836040805190810160405280600a81526020017f73746f72656f776e657200000000000000000000000000000000000000000000815250610728565b151515610bac57600080fd5b610beb836040805190810160405280600a81526020017f73746f72656f776e657200000000000000000000000000000000000000000000815250610f41565b600160048490806001815401808255809150509060018203906000526020600020016000909192909190916101000a81548173ffffffffffffffffffffffffffffffffffffffff021916908373ffffffffffffffffffffffffffffffffffffffff16021790555050506001915050919050565b600381815481101515610c6d57fe5b906000526020600020016000915054906101000a900473ffffffffffffffffffffffffffffffffffffffff1681565b60608173ffffffffffffffffffffffffffffffffffffffff1663d460a4ca6040518163ffffffff167c0100000000000000000000000000000000000000000000000000000000028152600401600060405180830381600087803b158015610d0257600080fd5b505af1158015610d16573d6000803e3d6000fd5b505050506040513d6000823e3d601f19601f820116820180604052506020811015610d4057600080fd5b810190808051640100000000811115610d5857600080fd5b82810190506020810184811115610d6e57600080fd5b8151856001820283011164010000000082111715610d8b57600080fd5b50509291905050509050919050565b600160009054906101000a900473ffffffffffffffffffffffffffffffffffffffff1673ffffffffffffffffffffffffffffffffffffffff163373ffffffffffffffffffffffffffffffffffffffff16141515610df657600080fd5b610dff81611075565b50565b6060600560008373ffffffffffffffffffffffffffffffffffffffff1673ffffffffffffffffffffffffffffffffffffffff168152602001908152602001600020805480602002602001604051908101604052809291908181526020018280548015610ec357602002820191906000526020600020905b8160009054906101000a900473ffffffffffffffffffffffffffffffffffffffff1673ffffffffffffffffffffffffffffffffffffffff1681526020019060010190808311610e79575b50505050509050919050565b610ed98282610ee8565b1515610ee457600080fd5b5050565b60008260000160008373ffffffffffffffffffffffffffffffffffffffff1673ffffffffffffffffffffffffffffffffffffffff16815260200190815260200160002060009054906101000a900460ff16905092915050565b610fbe826000836040518082805190602001908083835b602083101515610f7d5780518252602082019150602081019050602083039250610f58565b6001836020036101000a038019825116818451168082178552505050505050905001915050908152602001604051809103902061117190919063ffffffff16565b8173ffffffffffffffffffffffffffffffffffffffff167fbfec83d64eaa953f2708271a023ab9ee82057f8f3578d548c1a4ba0b5b700489826040518080602001828103825283818151815260200191508051906020019080838360005b8381101561103757808201518184015260208101905061101c565b50505050905090810190601f1680156110645780820380516001836020036101000a031916815260200191505b509250505060405180910390a25050565b600073ffffffffffffffffffffffffffffffffffffffff168173ffffffffffffffffffffffffffffffffffffffff16141515156110b157600080fd5b8073ffffffffffffffffffffffffffffffffffffffff16600160009054906101000a900473ffffffffffffffffffffffffffffffffffffffff1673ffffffffffffffffffffffffffffffffffffffff167f8be0079c531659141344cd1fd0a4f28419497f9722a3daafe3b4186f6b6457e060405160405180910390a380600160006101000a81548173ffffffffffffffffffffffffffffffffffffffff021916908373ffffffffffffffffffffffffffffffffffffffff16021790555050565b60018260000160008373ffffffffffffffffffffffffffffffffffffffff1673ffffffffffffffffffffffffffffffffffffffff16815260200190815260200160002060006101000a81548160ff0219169083151502179055505050565b6040516102ed806111e08339019056006080604052600060035534801561001557600080fd5b506040516102ed3803806102ed83398101806040528101908080518201929190505050336000806101000a81548173ffffffffffffffffffffffffffffffffffffffff021916908373ffffffffffffffffffffffffffffffffffffffff160217905550806001908051906020019061008e929190610095565b505061013a565b828054600181600116156101000203166002900490600052602060002090601f016020900481019282601f106100d657805160ff1916838001178555610104565b82800160010185558215610104579182015b828111156101035782518255916020019190600101906100e8565b5b5090506101119190610115565b5090565b61013791905b8082111561013357600081600090555060010161011b565b5090565b90565b6101a4806101496000396000f300608060405260043610610041576000357c0100000000000000000000000000000000000000000000000000000000900463ffffffff168063d460a4ca14610046575b600080fd5b34801561005257600080fd5b5061005b6100d6565b6040518080602001828103825283818151815260200191508051906020019080838360005b8381101561009b578082015181840152602081019050610080565b50505050905090810190601f1680156100c85780820380516001836020036101000a031916815260200191505b509250505060405180910390f35b606060018054600181600116156101000203166002900480601f01602080910402602001604051908101604052809291908181526020018280546001816001161561010002031660029004801561016e5780601f106101435761010080835404028352916020019161016e565b820191906000526020600020905b81548152906001019060200180831161015157829003601f168201915b50505050509050905600a165627a7a723058200004bb36b00d9ca92c25a31934f7bcf536302410be0340dc185c0dec7907e8220029a165627a7a72305820253a1f7589e4404db55e9c6ab00994239c3db97359c2b06531774c4b16c4ef8d0029",
  "source": "pragma solidity ^0.4.2;\r\nimport \"./Store.sol\";\r\nimport \"openzeppelin-solidity/contracts/ownership/Ownable.sol\";\r\nimport \"openzeppelin-solidity/contracts/access/rbac/RBAC.sol\";\r\n\r\n\r\ncontract MarketPlace is RBAC, Ownable {\r\n    \r\n    string constant ROLE_STOREOWNER = \"storeowner\";\r\n    string constant ROLE_OWNER = \"owner\";\r\n    string constant ROLE_ADMIN = \"admin\";\r\n   \r\n    // Admin\r\n    mapping(address => bool) public admins;\r\n    address[] public adminsList;\r\n    \r\n    //StorOwners\r\n    address[] public storeOwnersList;\r\n    \r\n   mapping(address => address[]) theStores;\r\n    address[] theStoreList;\r\n    \r\n    \r\n    constructor() public payable {\r\n        require(msg.sender != 0);\r\n        addRole(msg.sender, ROLE_ADMIN);\r\n        // addRole(msg.sender, ROLE_OWNER);\r\n       // addRole(msg.sender, ROLE_ADMIN);\r\n    }\r\n    \r\n    function accountHasRole (address _address, string role) view public returns (bool) {\r\n        return hasRole(_address,role);\r\n    }\r\n    \r\n    function addStoreOwner(address storeOwnerAddress) public onlyRole(ROLE_ADMIN) returns(bool success) {\r\n        require(storeOwnerAddress != 0);\r\n        require(!hasRole(storeOwnerAddress,ROLE_STOREOWNER));\r\n        addRole(storeOwnerAddress, ROLE_STOREOWNER);\r\n        storeOwnersList.push(storeOwnerAddress) - 1;\r\n        return true;\r\n    }\r\n    \r\n    \r\n   function getStoresOfStoreOwner(address storeOwnerAddress) view public\r\n    returns (address[]) \r\n    {\r\n        return theStores[storeOwnerAddress];\r\n    }\r\n    \r\n    function addStore(string storeName) public returns(uint){\r\n        address storecontract = new Store(storeName);\r\n        theStores[msg.sender].push(storecontract);\r\n        return theStoreList.push(storecontract) - 1;\r\n        \r\n    }\r\n    \r\n    function getStoreName(address storeAddress) view public returns(string){\r\n        return Store(storeAddress).getStoreName();\r\n    }\r\n    \r\n    /*\r\n    *  Admin Functions\r\n    */\r\n    \r\n    /*function addAdmin(address adminAddress) public onlyAdmin {\r\n        require(adminAddress != 0);\r\n        require(!hasRole(adminAddress,ROLE_ADMIN));\r\n        admins[adminAddress].isEntity = true;\r\n        admins[adminAddress].listPointer = adminsList.push(adminAddress) - 1;\r\n       // addRole(adminAddress, ROLE_ADMIN);\r\n    }\r\n    \r\n    function getAdmins()  \r\n    public onlyAdmin \r\n    returns (address[]) \r\n    {\r\n        return adminsList;\r\n    }\r\n    \r\n    \r\n    \r\n    function getStoreOwners()  \r\n    public onlyAdmin \r\n    returns (address[]) \r\n    {\r\n        return storeOwnersList;\r\n    }\r\n     */\r\n    \r\n}",
  "sourcePath": "C:\\Users\\Rodrigo\\Documents\\Consensys\\react-auth\\contracts\\MarketPlace.sol",
  "compiler": {
    "name": "solc",
    "version": "0.4.24+commit.e67f0147.Emscripten.clang"
  },
  "schemaVersion": "2.0.1",
  "updatedAt": "2018-08-25T03:06:18.634Z"
}