{
  "contractName": "MarketPlace",
  "abi": [
    {
      "constant": true,
      "inputs": [
        {
          "name": "_operator",
          "type": "address"
        },
        {
          "name": "_role",
          "type": "string"
        }
      ],
      "name": "checkRole",
      "outputs": [],
      "payable": false,
      "stateMutability": "view",
      "type": "function"
    },
    {
      "constant": true,
      "inputs": [
        {
          "name": "_operator",
          "type": "address"
        },
        {
          "name": "_role",
          "type": "string"
        }
      ],
      "name": "hasRole",
      "outputs": [
        {
          "name": "",
          "type": "bool"
        }
      ],
      "payable": false,
      "stateMutability": "view",
      "type": "function"
    },
    {
      "constant": true,
      "inputs": [
        {
          "name": "",
          "type": "uint256"
        }
      ],
      "name": "storeOwnersList",
      "outputs": [
        {
          "name": "",
          "type": "address"
        }
      ],
      "payable": false,
      "stateMutability": "view",
      "type": "function"
    },
    {
      "constant": true,
      "inputs": [
        {
          "name": "",
          "type": "address"
        }
      ],
      "name": "admins",
      "outputs": [
        {
          "name": "",
          "type": "bool"
        }
      ],
      "payable": false,
      "stateMutability": "view",
      "type": "function"
    },
    {
      "constant": false,
      "inputs": [],
      "name": "renounceOwnership",
      "outputs": [],
      "payable": false,
      "stateMutability": "nonpayable",
      "type": "function"
    },
    {
      "constant": true,
      "inputs": [],
      "name": "owner",
      "outputs": [
        {
          "name": "",
          "type": "address"
        }
      ],
      "payable": false,
      "stateMutability": "view",
      "type": "function"
    },
    {
      "constant": true,
      "inputs": [
        {
          "name": "",
          "type": "uint256"
        }
      ],
      "name": "adminsList",
      "outputs": [
        {
          "name": "",
          "type": "address"
        }
      ],
      "payable": false,
      "stateMutability": "view",
      "type": "function"
    },
    {
      "constant": false,
      "inputs": [
        {
          "name": "_newOwner",
          "type": "address"
        }
      ],
      "name": "transferOwnership",
      "outputs": [],
      "payable": false,
      "stateMutability": "nonpayable",
      "type": "function"
    },
    {
      "inputs": [],
      "payable": true,
      "stateMutability": "payable",
      "type": "constructor"
    },
    {
      "anonymous": false,
      "inputs": [
        {
          "indexed": true,
          "name": "previousOwner",
          "type": "address"
        }
      ],
      "name": "OwnershipRenounced",
      "type": "event"
    },
    {
      "anonymous": false,
      "inputs": [
        {
          "indexed": true,
          "name": "previousOwner",
          "type": "address"
        },
        {
          "indexed": true,
          "name": "newOwner",
          "type": "address"
        }
      ],
      "name": "OwnershipTransferred",
      "type": "event"
    },
    {
      "anonymous": false,
      "inputs": [
        {
          "indexed": true,
          "name": "operator",
          "type": "address"
        },
        {
          "indexed": false,
          "name": "role",
          "type": "string"
        }
      ],
      "name": "RoleAdded",
      "type": "event"
    },
    {
      "anonymous": false,
      "inputs": [
        {
          "indexed": true,
          "name": "operator",
          "type": "address"
        },
        {
          "indexed": false,
          "name": "role",
          "type": "string"
        }
      ],
      "name": "RoleRemoved",
      "type": "event"
    },
    {
      "constant": true,
      "inputs": [
        {
          "name": "_address",
          "type": "address"
        },
        {
          "name": "role",
          "type": "string"
        }
      ],
      "name": "accountHasRole",
      "outputs": [
        {
          "name": "",
          "type": "bool"
        }
      ],
      "payable": false,
      "stateMutability": "view",
      "type": "function"
    },
    {
      "constant": false,
      "inputs": [
        {
          "name": "storeOwnerAddress",
          "type": "address"
        }
      ],
      "name": "addStoreOwner",
      "outputs": [
        {
          "name": "success",
          "type": "bool"
        }
      ],
      "payable": false,
      "stateMutability": "nonpayable",
      "type": "function"
    },
    {
      "constant": true,
      "inputs": [],
      "name": "getStoreOwners",
      "outputs": [
        {
          "name": "",
          "type": "address[]"
        }
      ],
      "payable": false,
      "stateMutability": "view",
      "type": "function"
    },
    {
      "constant": false,
      "inputs": [
        {
          "name": "storeName",
          "type": "bytes32"
        }
      ],
      "name": "addStore",
      "outputs": [
        {
          "name": "success",
          "type": "bool"
        }
      ],
      "payable": false,
      "stateMutability": "nonpayable",
      "type": "function"
    },
    {
      "constant": true,
      "inputs": [
        {
          "name": "storeOwnerAddress",
          "type": "address"
        }
      ],
      "name": "getStoresOfStoreOwner",
      "outputs": [
        {
          "name": "",
          "type": "address[]"
        }
      ],
      "payable": false,
      "stateMutability": "view",
      "type": "function"
    },
    {
      "constant": true,
      "inputs": [
        {
          "name": "storeAddress",
          "type": "address"
        }
      ],
      "name": "getStoreName",
      "outputs": [
        {
          "name": "",
          "type": "bytes32"
        }
      ],
      "payable": false,
      "stateMutability": "view",
      "type": "function"
    }
  ],
  "bytecode": "0x608060405233600160006101000a81548173ffffffffffffffffffffffffffffffffffffffff021916908373ffffffffffffffffffffffffffffffffffffffff16021790555060003373ffffffffffffffffffffffffffffffffffffffff16141515156200006c57600080fd5b620000bc336040805190810160405280600581526020017f61646d696e000000000000000000000000000000000000000000000000000000815250620000c2640100000000026401000000009004565b62000269565b62000151826000836040518082805190602001908083835b602083101515620001015780518252602082019150602081019050602083039250620000da565b6001836020036101000a03801982511681845116808217855250505050505090500191505090815260200160405180910390206200020b6401000000000262001388179091906401000000009004565b8173ffffffffffffffffffffffffffffffffffffffff167fbfec83d64eaa953f2708271a023ab9ee82057f8f3578d548c1a4ba0b5b700489826040518080602001828103825283818151815260200191508051906020019080838360005b83811015620001cc578082015181840152602081019050620001af565b50505050905090810190601f168015620001fa5780820380516001836020036101000a031916815260200191505b509250505060405180910390a25050565b60018260000160008373ffffffffffffffffffffffffffffffffffffffff1673ffffffffffffffffffffffffffffffffffffffff16815260200190815260200160002060006101000a81548160ff0219169083151502179055505050565b611bea80620002796000396000f3006080604052600436106100d0576000357c0100000000000000000000000000000000000000000000000000000000900463ffffffff1680630988ca8c146100d5578063217fe6c61461015e578063240c8b77146101ff578063429b62e51461026c57806362ab8a2b146102c7578063715018a6146103685780638da5cb5b1461037f57806391f4245a146103d65780639a20400c146104425780639adeb5f11461048b578063a4705294146104e6578063bcfaf97814610553578063f2fde38b146105b2578063fa21ab90146105f5575b600080fd5b3480156100e157600080fd5b5061015c600480360381019080803573ffffffffffffffffffffffffffffffffffffffff169060200190929190803590602001908201803590602001908080601f016020809104026020016040519081016040528093929190818152602001838380828437820191505050505050919291929050505061068d565b005b34801561016a57600080fd5b506101e5600480360381019080803573ffffffffffffffffffffffffffffffffffffffff169060200190929190803590602001908201803590602001908080601f016020809104026020016040519081016040528093929190818152602001838380828437820191505050505050919291929050505061070e565b604051808215151515815260200191505060405180910390f35b34801561020b57600080fd5b5061022a60048036038101908080359060200190929190505050610795565b604051808273ffffffffffffffffffffffffffffffffffffffff1673ffffffffffffffffffffffffffffffffffffffff16815260200191505060405180910390f35b34801561027857600080fd5b506102ad600480360381019080803573ffffffffffffffffffffffffffffffffffffffff1690602001909291905050506107d3565b604051808215151515815260200191505060405180910390f35b3480156102d357600080fd5b5061034e600480360381019080803573ffffffffffffffffffffffffffffffffffffffff169060200190929190803590602001908201803590602001908080601f01602080910402602001604051908101604052809392919081815260200183838082843782019150505050505091929192905050506107f3565b604051808215151515815260200191505060405180910390f35b34801561037457600080fd5b5061037d610807565b005b34801561038b57600080fd5b5061039461090c565b604051808273ffffffffffffffffffffffffffffffffffffffff1673ffffffffffffffffffffffffffffffffffffffff16815260200191505060405180910390f35b3480156103e257600080fd5b506103eb610932565b6040518080602001828103825283818151815260200191508051906020019060200280838360005b8381101561042e578082015181840152602081019050610413565b505050509050019250505060405180910390f35b34801561044e57600080fd5b506104716004803603810190808035600019169060200190929190505050610a01565b604051808215151515815260200191505060405180910390f35b34801561049757600080fd5b506104cc600480360381019080803573ffffffffffffffffffffffffffffffffffffffff169060200190929190505050610ceb565b604051808215151515815260200191505060405180910390f35b3480156104f257600080fd5b5061051160048036038101908080359060200190929190505050610e50565b604051808273ffffffffffffffffffffffffffffffffffffffff1673ffffffffffffffffffffffffffffffffffffffff16815260200191505060405180910390f35b34801561055f57600080fd5b50610594600480360381019080803573ffffffffffffffffffffffffffffffffffffffff169060200190929190505050610e8e565b60405180826000191660001916815260200191505060405180910390f35b3480156105be57600080fd5b506105f3600480360381019080803573ffffffffffffffffffffffffffffffffffffffff169060200190929190505050610f36565b005b34801561060157600080fd5b50610636600480360381019080803573ffffffffffffffffffffffffffffffffffffffff169060200190929190505050610f9e565b6040518080602001828103825283818151815260200191508051906020019060200280838360005b8381101561067957808201518184015260208101905061065e565b505050509050019250505060405180910390f35b61070a826000836040518082805190602001908083835b6020831015156106c957805182526020820191506020810190506020830392506106a4565b6001836020036101000a03801982511681845116808217855250505050505090500191505090815260200160405180910390206110e690919063ffffffff16565b5050565b600061078d836000846040518082805190602001908083835b60208310151561074c5780518252602082019150602081019050602083039250610727565b6001836020036101000a03801982511681845116808217855250505050505090500191505090815260200160405180910390206110ff90919063ffffffff16565b905092915050565b6004818154811015156107a457fe5b906000526020600020016000915054906101000a900473ffffffffffffffffffffffffffffffffffffffff1681565b60026020528060005260406000206000915054906101000a900460ff1681565b60006107ff838361070e565b905092915050565b600160009054906101000a900473ffffffffffffffffffffffffffffffffffffffff1673ffffffffffffffffffffffffffffffffffffffff163373ffffffffffffffffffffffffffffffffffffffff1614151561086357600080fd5b600160009054906101000a900473ffffffffffffffffffffffffffffffffffffffff1673ffffffffffffffffffffffffffffffffffffffff167ff8df31144d9c2f0f6b59d69b8b98abd5459d07f2742c4df920b25aae33c6482060405160405180910390a26000600160006101000a81548173ffffffffffffffffffffffffffffffffffffffff021916908373ffffffffffffffffffffffffffffffffffffffff160217905550565b600160009054906101000a900473ffffffffffffffffffffffffffffffffffffffff1681565b60606040805190810160405280600581526020017f61646d696e000000000000000000000000000000000000000000000000000000815250610974338261068d565b60048054806020026020016040519081016040528092919081815260200182805480156109f657602002820191906000526020600020905b8160009054906101000a900473ffffffffffffffffffffffffffffffffffffffff1673ffffffffffffffffffffffffffffffffffffffff16815260200190600101908083116109ac575b505050505091505090565b6000806040805190810160405280600a81526020017f73746f72656f776e657200000000000000000000000000000000000000000000815250610a44338261068d565b610a83336040805190810160405280600a81526020017f73746f72656f776e65720000000000000000000000000000000000000000000081525061070e565b1515610b1d576040517f08c379a00000000000000000000000000000000000000000000000000000000081526004018080602001828103825260228152602001807f4f6e6c792053746f72654f776e6572732063616e206372656174652073746f7281526020017f657300000000000000000000000000000000000000000000000000000000000081525060400191505060405180910390fd5b6000602060ff1614151515610b9a576040517f08c379a000000000000000000000000000000000000000000000000000000000815260040180806020018281038252601b8152602001807f53746f7265206e616d652063616e206e6f7420626520656d707479000000000081525060200191505060405180910390fd5b83610ba36113e6565b808260001916600019168152602001915050604051809103906000f080158015610bd1573d6000803e3d6000fd5b509150600560003373ffffffffffffffffffffffffffffffffffffffff1673ffffffffffffffffffffffffffffffffffffffff1681526020019081526020016000208290806001815401808255809150509060018203906000526020600020016000909192909190916101000a81548173ffffffffffffffffffffffffffffffffffffffff021916908373ffffffffffffffffffffffffffffffffffffffff16021790555050600160068390806001815401808255809150509060018203906000526020600020016000909192909190916101000a81548173ffffffffffffffffffffffffffffffffffffffff021916908373ffffffffffffffffffffffffffffffffffffffff1602179055505050600192505050919050565b60006040805190810160405280600581526020017f61646d696e000000000000000000000000000000000000000000000000000000815250610d2d338261068d565b60008373ffffffffffffffffffffffffffffffffffffffff1614151515610d5357600080fd5b610d92836040805190810160405280600a81526020017f73746f72656f776e65720000000000000000000000000000000000000000000081525061070e565b151515610d9e57600080fd5b610ddd836040805190810160405280600a81526020017f73746f72656f776e657200000000000000000000000000000000000000000000815250611158565b600160048490806001815401808255809150509060018203906000526020600020016000909192909190916101000a81548173ffffffffffffffffffffffffffffffffffffffff021916908373ffffffffffffffffffffffffffffffffffffffff16021790555050506001915050919050565b600381815481101515610e5f57fe5b906000526020600020016000915054906101000a900473ffffffffffffffffffffffffffffffffffffffff1681565b60008173ffffffffffffffffffffffffffffffffffffffff1663d460a4ca6040518163ffffffff167c0100000000000000000000000000000000000000000000000000000000028152600401602060405180830381600087803b158015610ef457600080fd5b505af1158015610f08573d6000803e3d6000fd5b505050506040513d6020811015610f1e57600080fd5b81019080805190602001909291905050509050919050565b600160009054906101000a900473ffffffffffffffffffffffffffffffffffffffff1673ffffffffffffffffffffffffffffffffffffffff163373ffffffffffffffffffffffffffffffffffffffff16141515610f9257600080fd5b610f9b8161128c565b50565b60606040805190810160405280600a81526020017f73746f72656f776e657200000000000000000000000000000000000000000000815250610fe0338261068d565b8273ffffffffffffffffffffffffffffffffffffffff163373ffffffffffffffffffffffffffffffffffffffff1614151561101a57600080fd5b600560008473ffffffffffffffffffffffffffffffffffffffff1673ffffffffffffffffffffffffffffffffffffffff1681526020019081526020016000208054806020026020016040519081016040528092919081815260200182805480156110d957602002820191906000526020600020905b8160009054906101000a900473ffffffffffffffffffffffffffffffffffffffff1673ffffffffffffffffffffffffffffffffffffffff168152602001906001019080831161108f575b5050505050915050919050565b6110f082826110ff565b15156110fb57600080fd5b5050565b60008260000160008373ffffffffffffffffffffffffffffffffffffffff1673ffffffffffffffffffffffffffffffffffffffff16815260200190815260200160002060009054906101000a900460ff16905092915050565b6111d5826000836040518082805190602001908083835b602083101515611194578051825260208201915060208101905060208303925061116f565b6001836020036101000a038019825116818451168082178552505050505050905001915050908152602001604051809103902061138890919063ffffffff16565b8173ffffffffffffffffffffffffffffffffffffffff167fbfec83d64eaa953f2708271a023ab9ee82057f8f3578d548c1a4ba0b5b700489826040518080602001828103825283818151815260200191508051906020019080838360005b8381101561124e578082015181840152602081019050611233565b50505050905090810190601f16801561127b5780820380516001836020036101000a031916815260200191505b509250505060405180910390a25050565b600073ffffffffffffffffffffffffffffffffffffffff168173ffffffffffffffffffffffffffffffffffffffff16141515156112c857600080fd5b8073ffffffffffffffffffffffffffffffffffffffff16600160009054906101000a900473ffffffffffffffffffffffffffffffffffffffff1673ffffffffffffffffffffffffffffffffffffffff167f8be0079c531659141344cd1fd0a4f28419497f9722a3daafe3b4186f6b6457e060405160405180910390a380600160006101000a81548173ffffffffffffffffffffffffffffffffffffffff021916908373ffffffffffffffffffffffffffffffffffffffff16021790555050565b60018260000160008373ffffffffffffffffffffffffffffffffffffffff1673ffffffffffffffffffffffffffffffffffffffff16815260200190815260200160002060006101000a81548160ff0219169083151502179055505050565b6040516107c8806113f7833901905600608060405234801561001057600080fd5b506040516020806107c883398101806040528101908080519060200190929190505050336000806101000a81548173ffffffffffffffffffffffffffffffffffffffff021916908373ffffffffffffffffffffffffffffffffffffffff16021790555080600181600019169055505061073a8061008e6000396000f300608060405260043610610099576000357c0100000000000000000000000000000000000000000000000000000000900463ffffffff168063521936e61461009e578063715018a6146100d15780637acc0b20146100e85780638da5cb5b14610146578063947fe3ab1461019d578063b69ef8a814610204578063d460a4ca1461022f578063e0f6ef8714610262578063f2fde38b1461028d575b600080fd5b3480156100aa57600080fd5b506100b36102d0565b60405180826000191660001916815260200191505060405180910390f35b3480156100dd57600080fd5b506100e66102d6565b005b3480156100f457600080fd5b50610113600480360381019080803590602001909291905050506103d8565b60405180858152602001846000191660001916815260200183815260200182815260200194505050505060405180910390f35b34801561015257600080fd5b5061015b610408565b604051808273ffffffffffffffffffffffffffffffffffffffff1673ffffffffffffffffffffffffffffffffffffffff16815260200191505060405180910390f35b3480156101a957600080fd5b506101ea600480360381019080803590602001909291908035600019169060200190929190803590602001909291908035906020019092919050505061042d565b604051808215151515815260200191505060405180910390f35b34801561021057600080fd5b5061021961055b565b6040518082815260200191505060405180910390f35b34801561023b57600080fd5b50610244610561565b60405180826000191660001916815260200191505060405180910390f35b34801561026e57600080fd5b5061027761056b565b6040518082815260200191505060405180910390f35b34801561029957600080fd5b506102ce600480360381019080803573ffffffffffffffffffffffffffffffffffffffff169060200190929190505050610571565b005b60015481565b6000809054906101000a900473ffffffffffffffffffffffffffffffffffffffff1673ffffffffffffffffffffffffffffffffffffffff163373ffffffffffffffffffffffffffffffffffffffff1614151561033157600080fd5b6000809054906101000a900473ffffffffffffffffffffffffffffffffffffffff1673ffffffffffffffffffffffffffffffffffffffff167ff8df31144d9c2f0f6b59d69b8b98abd5459d07f2742c4df920b25aae33c6482060405160405180910390a260008060006101000a81548173ffffffffffffffffffffffffffffffffffffffff021916908373ffffffffffffffffffffffffffffffffffffffff160217905550565b60046020528060005260406000206000915090508060000154908060010154908060020154908060030154905084565b6000809054906101000a900473ffffffffffffffffffffffffffffffffffffffff1681565b60006104376106e2565b6000809054906101000a900473ffffffffffffffffffffffffffffffffffffffff1673ffffffffffffffffffffffffffffffffffffffff163373ffffffffffffffffffffffffffffffffffffffff1614151561049257600080fd5b608060405190810160405280878152602001866000191681526020018581526020018481525090506104c3816105d8565b1561054d578060046000888152602001908152602001600020600082015181600001556020820151816001019060001916905560408201518160020155606082015181600301559050507f6770397cf8581b9596e7c96436ebe004d3324516d97996fbecd02970dc2cbd27866040518082815260200191505060405180910390a160019150610552565b600091505b50949350505050565b60025481565b6000600154905090565b60035481565b6000809054906101000a900473ffffffffffffffffffffffffffffffffffffffff1673ffffffffffffffffffffffffffffffffffffffff163373ffffffffffffffffffffffffffffffffffffffff161415156105cc57600080fd5b6105d5816105e8565b50565b6000808260400151119050919050565b600073ffffffffffffffffffffffffffffffffffffffff168173ffffffffffffffffffffffffffffffffffffffff161415151561062457600080fd5b8073ffffffffffffffffffffffffffffffffffffffff166000809054906101000a900473ffffffffffffffffffffffffffffffffffffffff1673ffffffffffffffffffffffffffffffffffffffff167f8be0079c531659141344cd1fd0a4f28419497f9722a3daafe3b4186f6b6457e060405160405180910390a3806000806101000a81548173ffffffffffffffffffffffffffffffffffffffff021916908373ffffffffffffffffffffffffffffffffffffffff16021790555050565b6080604051908101604052806000815260200160008019168152602001600081526020016000815250905600a165627a7a72305820abb051a0d3e08ec3fe8783ac49d3ff747d2567658b01adc5b403ae60889d69600029a165627a7a72305820dfeca1df26585dda2f6608dc6ca3481083e1f83102c334d2b04e59e82e6cfe9f0029",
  "source": "pragma solidity ^0.4.2;\r\nimport \"./Store.sol\";\r\nimport \"openzeppelin-solidity/contracts/ownership/Ownable.sol\";\r\nimport \"openzeppelin-solidity/contracts/access/rbac/RBAC.sol\";\r\n\r\n\r\ncontract MarketPlace is RBAC, Ownable {\r\n    \r\n    string constant ROLE_STOREOWNER = \"storeowner\";\r\n    string constant ROLE_OWNER = \"owner\";\r\n    string constant ROLE_ADMIN = \"admin\";\r\n   \r\n    // Admin\r\n    mapping(address => bool) public admins;\r\n    address[] public adminsList;\r\n    \r\n    //StorOwners\r\n    address[] public storeOwnersList;\r\n    \r\n   mapping(address => address[]) theStores;\r\n    address[] theStoreList;\r\n    \r\n    \r\n    constructor() public payable {\r\n        require(msg.sender != 0);\r\n        addRole(msg.sender, ROLE_ADMIN);\r\n        // addRole(msg.sender, ROLE_OWNER);\r\n       // addRole(msg.sender, ROLE_ADMIN);\r\n    }\r\n    \r\n    function accountHasRole (address _address, string role) view public returns (bool) {\r\n        return hasRole(_address,role);\r\n    }\r\n    \r\n    function addStoreOwner(address storeOwnerAddress) public onlyRole(ROLE_ADMIN) returns(bool success) {\r\n        require(storeOwnerAddress != 0);\r\n        require(!hasRole(storeOwnerAddress,ROLE_STOREOWNER));\r\n        addRole(storeOwnerAddress, ROLE_STOREOWNER);\r\n        storeOwnersList.push(storeOwnerAddress) - 1;\r\n        return true;\r\n    }\r\n    \r\n     function getStoreOwners() view public onlyRole(ROLE_ADMIN) returns (address[]) \r\n    {\r\n        return storeOwnersList;\r\n    }      \r\n    \r\n\r\n    // StoreOwner functions    \r\n\r\n    function addStore(bytes32 storeName) public onlyRole(ROLE_STOREOWNER) returns(bool success){\r\n        require(hasRole(msg.sender,ROLE_STOREOWNER),\"Only StoreOwners can create stores\");\r\n        require(storeName.length != 0, \"Store name can not be empty\");\r\n        address storecontract = new Store(storeName);\r\n        theStores[msg.sender].push(storecontract);\r\n        theStoreList.push(storecontract) - 1;\r\n        return true;\r\n    }\r\n\r\n    function getStoresOfStoreOwner(address storeOwnerAddress) view public onlyRole(ROLE_STOREOWNER) returns (address[]) \r\n    {\r\n        require(msg.sender == storeOwnerAddress);\r\n        return theStores[storeOwnerAddress];\r\n    }\r\n    \r\n    function getStoreName(address storeAddress) view public returns(bytes32){\r\n        return Store(storeAddress).getStoreName();\r\n    }\r\n    /*\r\n    *  Admin Functions\r\n    */\r\n    \r\n    /*function addAdmin(address adminAddress) public onlyAdmin {\r\n        require(adminAddress != 0);\r\n        require(!hasRole(adminAddress,ROLE_ADMIN));\r\n        admins[adminAddress].isEntity = true;\r\n        admins[adminAddress].listPointer = adminsList.push(adminAddress) - 1;\r\n       // addRole(adminAddress, ROLE_ADMIN);\r\n    }\r\n    \r\n    function getAdmins()  \r\n    public onlyAdmin \r\n    returns (address[]) \r\n    {\r\n        return adminsList;\r\n    }\r\n    \r\n    \r\n    \r\n   \r\n     */\r\n    \r\n}",
  "sourcePath": "C:\\Users\\Rodrigo\\Documents\\Consensys\\react-auth\\contracts\\MarketPlace.sol",
  "compiler": {
    "name": "solc",
    "version": "0.4.24+commit.e67f0147.Emscripten.clang"
  },
  "schemaVersion": "2.0.1",
  "updatedAt": "2018-08-26T04:18:48.392Z"
}