{
  "contractName": "Store",
  "abi": [
    {
      "constant": false,
      "inputs": [],
      "name": "unpause",
      "outputs": [],
      "payable": false,
      "stateMutability": "nonpayable",
      "type": "function"
    },
    {
      "constant": true,
      "inputs": [],
      "name": "storeName",
      "outputs": [
        {
          "name": "",
          "type": "string"
        }
      ],
      "payable": false,
      "stateMutability": "view",
      "type": "function"
    },
    {
      "constant": true,
      "inputs": [],
      "name": "paused",
      "outputs": [
        {
          "name": "",
          "type": "bool"
        }
      ],
      "payable": false,
      "stateMutability": "view",
      "type": "function"
    },
    {
      "constant": false,
      "inputs": [],
      "name": "renounceOwnership",
      "outputs": [],
      "payable": false,
      "stateMutability": "nonpayable",
      "type": "function"
    },
    {
      "constant": true,
      "inputs": [
        {
          "name": "",
          "type": "uint256"
        }
      ],
      "name": "products",
      "outputs": [
        {
          "components": [
            {
              "name": "id",
              "type": "uint256"
            },
            {
              "name": "name",
              "type": "string"
            },
            {
              "name": "price",
              "type": "uint256"
            },
            {
              "name": "stock",
              "type": "uint256"
            }
          ],
          "name": "product",
          "type": "tuple"
        },
        {
          "name": "isEntity",
          "type": "bool"
        }
      ],
      "payable": false,
      "stateMutability": "view",
      "type": "function"
    },
    {
      "constant": false,
      "inputs": [],
      "name": "pause",
      "outputs": [],
      "payable": false,
      "stateMutability": "nonpayable",
      "type": "function"
    },
    {
      "constant": true,
      "inputs": [],
      "name": "owner",
      "outputs": [
        {
          "name": "",
          "type": "address"
        }
      ],
      "payable": false,
      "stateMutability": "view",
      "type": "function"
    },
    {
      "constant": true,
      "inputs": [],
      "name": "balance",
      "outputs": [
        {
          "name": "",
          "type": "uint256"
        }
      ],
      "payable": false,
      "stateMutability": "view",
      "type": "function"
    },
    {
      "constant": true,
      "inputs": [],
      "name": "productCount",
      "outputs": [
        {
          "name": "",
          "type": "uint256"
        }
      ],
      "payable": false,
      "stateMutability": "view",
      "type": "function"
    },
    {
      "constant": false,
      "inputs": [
        {
          "name": "_newOwner",
          "type": "address"
        }
      ],
      "name": "transferOwnership",
      "outputs": [],
      "payable": false,
      "stateMutability": "nonpayable",
      "type": "function"
    },
    {
      "inputs": [
        {
          "name": "_storeName",
          "type": "string"
        }
      ],
      "payable": false,
      "stateMutability": "nonpayable",
      "type": "constructor"
    },
    {
      "anonymous": false,
      "inputs": [
        {
          "indexed": false,
          "name": "productId",
          "type": "uint256"
        }
      ],
      "name": "NewProductAdded",
      "type": "event"
    },
    {
      "anonymous": false,
      "inputs": [
        {
          "indexed": false,
          "name": "productId",
          "type": "uint256"
        },
        {
          "indexed": false,
          "name": "newPrice",
          "type": "uint256"
        }
      ],
      "name": "ProductPriceUpdatedSuccessfully",
      "type": "event"
    },
    {
      "anonymous": false,
      "inputs": [
        {
          "indexed": false,
          "name": "productId",
          "type": "uint256"
        },
        {
          "indexed": false,
          "name": "remainingStock",
          "type": "uint256"
        }
      ],
      "name": "ProductPurchaseSuccessful",
      "type": "event"
    },
    {
      "anonymous": false,
      "inputs": [],
      "name": "Pause",
      "type": "event"
    },
    {
      "anonymous": false,
      "inputs": [],
      "name": "Unpause",
      "type": "event"
    },
    {
      "anonymous": false,
      "inputs": [
        {
          "indexed": true,
          "name": "previousOwner",
          "type": "address"
        }
      ],
      "name": "OwnershipRenounced",
      "type": "event"
    },
    {
      "anonymous": false,
      "inputs": [
        {
          "indexed": true,
          "name": "previousOwner",
          "type": "address"
        },
        {
          "indexed": true,
          "name": "newOwner",
          "type": "address"
        }
      ],
      "name": "OwnershipTransferred",
      "type": "event"
    },
    {
      "constant": false,
      "inputs": [
        {
          "name": "_id",
          "type": "uint256"
        },
        {
          "name": "_name",
          "type": "string"
        },
        {
          "name": "_price",
          "type": "uint256"
        },
        {
          "name": "_stock",
          "type": "uint256"
        }
      ],
      "name": "addNewProduct",
      "outputs": [
        {
          "name": "success",
          "type": "bool"
        }
      ],
      "payable": false,
      "stateMutability": "nonpayable",
      "type": "function"
    },
    {
      "constant": false,
      "inputs": [
        {
          "name": "_id",
          "type": "uint256"
        },
        {
          "name": "_price",
          "type": "uint256"
        }
      ],
      "name": "updateProductPrice",
      "outputs": [
        {
          "name": "success",
          "type": "bool"
        }
      ],
      "payable": false,
      "stateMutability": "nonpayable",
      "type": "function"
    },
    {
      "constant": true,
      "inputs": [
        {
          "name": "_id",
          "type": "uint256"
        }
      ],
      "name": "getProduct",
      "outputs": [
        {
          "name": "name",
          "type": "string"
        },
        {
          "name": "price",
          "type": "uint256"
        },
        {
          "name": "stock",
          "type": "uint256"
        }
      ],
      "payable": false,
      "stateMutability": "view",
      "type": "function"
    },
    {
      "constant": false,
      "inputs": [
        {
          "name": "_id",
          "type": "uint256"
        },
        {
          "name": "_quantity",
          "type": "uint256"
        }
      ],
      "name": "buyProduct",
      "outputs": [
        {
          "name": "success",
          "type": "bool"
        }
      ],
      "payable": true,
      "stateMutability": "payable",
      "type": "function"
    },
    {
      "constant": false,
      "inputs": [],
      "name": "withdraw",
      "outputs": [],
      "payable": false,
      "stateMutability": "nonpayable",
      "type": "function"
    },
    {
      "constant": false,
      "inputs": [],
      "name": "getStoreName",
      "outputs": [
        {
          "name": "",
          "type": "string"
        }
      ],
      "payable": false,
      "stateMutability": "nonpayable",
      "type": "function"
    },
    {
      "constant": true,
      "inputs": [],
      "name": "getStoreInfo",
      "outputs": [
        {
          "name": "",
          "type": "string"
        },
        {
          "name": "",
          "type": "uint256"
        },
        {
          "name": "",
          "type": "uint256"
        }
      ],
      "payable": false,
      "stateMutability": "view",
      "type": "function"
    }
  ],
  "bytecode": "0x608060405260008060146101000a81548160ff0219169083151502179055503480156200002b57600080fd5b50604051620017ea380380620017ea83398101806040528101908080518201929190505050336000806101000a81548173ffffffffffffffffffffffffffffffffffffffff021916908373ffffffffffffffffffffffffffffffffffffffff1602179055508060029080519060200190620000a8929190620000c0565b5060006003819055506000600481905550506200016f565b828054600181600116156101000203166002900490600052602060002090601f016020900481019282601f106200010357805160ff191683800117855562000134565b8280016001018555821562000134579182015b828111156200013357825182559160200191906001019062000116565b5b50905062000143919062000147565b5090565b6200016c91905b80821115620001685760008160009055506001016200014e565b5090565b90565b61166b806200017f6000396000f3006080604052600436106100f1576000357c0100000000000000000000000000000000000000000000000000000000900463ffffffff1680633ccfd60b146100f65780633f4ba83a1461010d578063521936e61461012457806353b62866146101b45780635c975abb146101f6578063715018a6146102255780637acc0b201461023c5780638456cb591461028857806387934b391461029f5780638da5cb5b1461033e5780639c3bddb214610395578063b69ef8a8146103e4578063b9db15b41461040f578063ca15d64a146104c3578063d460a4ca14610561578063e0f6ef87146105f1578063f2fde38b1461061c575b600080fd5b34801561010257600080fd5b5061010b61065f565b005b34801561011957600080fd5b506101226107d9565b005b34801561013057600080fd5b50610139610897565b6040518080602001828103825283818151815260200191508051906020019080838360005b8381101561017957808201518184015260208101905061015e565b50505050905090810190601f1680156101a65780820380516001836020036101000a031916815260200191505b509250505060405180910390f35b6101dc6004803603810190808035906020019092919080359060200190929190505050610935565b604051808215151515815260200191505060405180910390f35b34801561020257600080fd5b5061020b610b6e565b604051808215151515815260200191505060405180910390f35b34801561023157600080fd5b5061023a610b81565b005b34801561024857600080fd5b5061026760048036038101908080359060200190929190505050610c83565b60405180838152602001821515151581526020019250505060405180910390f35b34801561029457600080fd5b5061029d610d7f565b005b3480156102ab57600080fd5b5061032460048036038101908080359060200190929190803590602001908201803590602001908080601f01602080910402602001604051908101604052809392919081815260200183838082843782019150505050505091929192908035906020019092919080359060200190929190505050610e3f565b604051808215151515815260200191505060405180910390f35b34801561034a57600080fd5b50610353610fc4565b604051808273ffffffffffffffffffffffffffffffffffffffff1673ffffffffffffffffffffffffffffffffffffffff16815260200191505060405180910390f35b3480156103a157600080fd5b506103ca6004803603810190808035906020019092919080359060200190929190505050610fea565b604051808215151515815260200191505060405180910390f35b3480156103f057600080fd5b506103f9611100565b6040518082815260200191505060405180910390f35b34801561041b57600080fd5b5061043a60048036038101908080359060200190929190505050611106565b6040518080602001848152602001838152602001828103825285818151815260200191508051906020019080838360005b8381101561048657808201518184015260208101905061046b565b50505050905090810190601f1680156104b35780820380516001836020036101000a031916815260200191505b5094505050505060405180910390f35b3480156104cf57600080fd5b506104d8611237565b6040518080602001848152602001838152602001828103825285818151815260200191508051906020019080838360005b83811015610524578082015181840152602081019050610509565b50505050905090810190601f1680156105515780820380516001836020036101000a031916815260200191505b5094505050505060405180910390f35b34801561056d57600080fd5b506105766112eb565b6040518080602001828103825283818151815260200191508051906020019080838360005b838110156105b657808201518184015260208101905061059b565b50505050905090810190601f1680156105e35780820380516001836020036101000a031916815260200191505b509250505060405180910390f35b3480156105fd57600080fd5b5061060661138d565b6040518082815260200191505060405180910390f35b34801561062857600080fd5b5061065d600480360381019080803573ffffffffffffffffffffffffffffffffffffffff169060200190929190505050611393565b005b60008060009054906101000a900473ffffffffffffffffffffffffffffffffffffffff1673ffffffffffffffffffffffffffffffffffffffff163373ffffffffffffffffffffffffffffffffffffffff161415156106bc57600080fd5b60066000600160009054906101000a900473ffffffffffffffffffffffffffffffffffffffff1673ffffffffffffffffffffffffffffffffffffffff1673ffffffffffffffffffffffffffffffffffffffff168152602001908152602001600020549050600060066000600160009054906101000a900473ffffffffffffffffffffffffffffffffffffffff1673ffffffffffffffffffffffffffffffffffffffff1673ffffffffffffffffffffffffffffffffffffffff1681526020019081526020016000208190555060006003819055503373ffffffffffffffffffffffffffffffffffffffff166108fc829081150290604051600060405180830381858888f193505050501580156107d5573d6000803e3d6000fd5b5050565b6000809054906101000a900473ffffffffffffffffffffffffffffffffffffffff1673ffffffffffffffffffffffffffffffffffffffff163373ffffffffffffffffffffffffffffffffffffffff1614151561083457600080fd5b600060149054906101000a900460ff16151561084f57600080fd5b60008060146101000a81548160ff0219169083151502179055507f7805862f689e2f13df9f062ff482ad3ad112aca9e0847911ed832e158c525b3360405160405180910390a1565b60028054600181600116156101000203166002900480601f01602080910402602001604051908101604052809291908181526020018280546001816001161561010002031660029004801561092d5780601f106109025761010080835404028352916020019161092d565b820191906000526020600020905b81548152906001019060200180831161091057829003601f168201915b505050505081565b600061093f611571565b60008060149054906101000a900460ff1615151561095c57600080fd5b600560008681526020019081526020016000206000016080604051908101604052908160008201548152602001600182018054600181600116156101000203166002900480601f016020809104026020016040519081016040528092919081815260200182805460018160011615610100020316600290048015610a215780601f106109f657610100808354040283529160200191610a21565b820191906000526020600020905b815481529060010190602001808311610a0457829003601f168201915b50505050508152602001600282015481526020016003820154815250509150610a578483604001516113fa90919063ffffffff16565b9050803410158015610a6d575083826060015110155b15610b6157610a873460035461143290919063ffffffff16565b600381905550610aa484836060015161144e90919063ffffffff16565b82606001818152505060035460066000600160009054906101000a900473ffffffffffffffffffffffffffffffffffffffff1673ffffffffffffffffffffffffffffffffffffffff1673ffffffffffffffffffffffffffffffffffffffff168152602001908152602001600020819055507f8822d705ed7af5f1ee8352bdc64a282c883a6158bde34619a31afdf8cd3ec9f1858360600151604051808381526020018281526020019250505060405180910390a160019250610b66565b600092505b505092915050565b600060149054906101000a900460ff1681565b6000809054906101000a900473ffffffffffffffffffffffffffffffffffffffff1673ffffffffffffffffffffffffffffffffffffffff163373ffffffffffffffffffffffffffffffffffffffff16141515610bdc57600080fd5b6000809054906101000a900473ffffffffffffffffffffffffffffffffffffffff1673ffffffffffffffffffffffffffffffffffffffff167ff8df31144d9c2f0f6b59d69b8b98abd5459d07f2742c4df920b25aae33c6482060405160405180910390a260008060006101000a81548173ffffffffffffffffffffffffffffffffffffffff021916908373ffffffffffffffffffffffffffffffffffffffff160217905550565b6005602052806000526040600020600091509050806000016080604051908101604052908160008201548152602001600182018054600181600116156101000203166002900480601f016020809104026020016040519081016040528092919081815260200182805460018160011615610100020316600290048015610d4a5780601f10610d1f57610100808354040283529160200191610d4a565b820191906000526020600020905b815481529060010190602001808311610d2d57829003601f168201915b5050505050815260200160028201548152602001600382015481525050908060040160009054906101000a900460ff16905082565b6000809054906101000a900473ffffffffffffffffffffffffffffffffffffffff1673ffffffffffffffffffffffffffffffffffffffff163373ffffffffffffffffffffffffffffffffffffffff16141515610dda57600080fd5b600060149054906101000a900460ff16151515610df657600080fd5b6001600060146101000a81548160ff0219169083151502179055507f6985a02210a168e66602d3235cb6db0e70f92b3ba4d376a33c0f3d9434bff62560405160405180910390a1565b6000610e49611571565b6000809054906101000a900473ffffffffffffffffffffffffffffffffffffffff1673ffffffffffffffffffffffffffffffffffffffff163373ffffffffffffffffffffffffffffffffffffffff16141515610ea457600080fd5b600060149054906101000a900460ff16151515610ec057600080fd5b608060405190810160405280878152602001868152602001858152602001848152509050610eed81611467565b15610fb6578060056000888152602001908152602001600020600001600082015181600001556020820151816001019080519060200190610f2f92919061159a565b50604082015181600201556060820151816003015590505060016005600088815260200190815260200160002060040160006101000a81548160ff0219169083151502179055507f6770397cf8581b9596e7c96436ebe004d3324516d97996fbecd02970dc2cbd27866040518082815260200191505060405180910390a160019150610fbb565b600091505b50949350505050565b600160009054906101000a900473ffffffffffffffffffffffffffffffffffffffff1681565b60008060009054906101000a900473ffffffffffffffffffffffffffffffffffffffff1673ffffffffffffffffffffffffffffffffffffffff163373ffffffffffffffffffffffffffffffffffffffff1614151561104757600080fd5b600060149054906101000a900460ff1615151561106357600080fd5b600115156005600085815260200190815260200160002060040160009054906101000a900460ff16151514151561109957600080fd5b8160056000858152602001908152602001600020600001600201819055507f76f50c1b11fef3f41d01f801097db5d7503b7194c5db4a88600d8a8be235db7c8383604051808381526020018281526020019250505060405180910390a16001905092915050565b60035481565b6060600080600115156005600086815260200190815260200160002060040160009054906101000a900460ff16151514151561114157600080fd5b6005600085815260200190815260200160002060000160010160056000868152602001908152602001600020600001600201546005600087815260200190815260200160002060000160030154828054600181600116156101000203166002900480601f0160208091040260200160405190810160405280929190818152602001828054600181600116156101000203166002900480156112235780601f106111f857610100808354040283529160200191611223565b820191906000526020600020905b81548152906001019060200180831161120657829003601f168201915b505050505092509250925092509193909250565b60606000806002600354600454828054600181600116156101000203166002900480601f0160208091040260200160405190810160405280929190818152602001828054600181600116156101000203166002900480156112d95780601f106112ae576101008083540402835291602001916112d9565b820191906000526020600020905b8154815290600101906020018083116112bc57829003601f168201915b50505050509250925092509250909192565b606060028054600181600116156101000203166002900480601f0160208091040260200160405190810160405280929190818152602001828054600181600116156101000203166002900480156113835780601f1061135857610100808354040283529160200191611383565b820191906000526020600020905b81548152906001019060200180831161136657829003601f168201915b5050505050905090565b60045481565b6000809054906101000a900473ffffffffffffffffffffffffffffffffffffffff1673ffffffffffffffffffffffffffffffffffffffff163373ffffffffffffffffffffffffffffffffffffffff161415156113ee57600080fd5b6113f781611477565b50565b60008083141561140d576000905061142c565b818302905081838281151561141e57fe5b0414151561142857fe5b8090505b92915050565b6000818301905082811015151561144557fe5b80905092915050565b600082821115151561145c57fe5b818303905092915050565b6000808260400151119050919050565b600073ffffffffffffffffffffffffffffffffffffffff168173ffffffffffffffffffffffffffffffffffffffff16141515156114b357600080fd5b8073ffffffffffffffffffffffffffffffffffffffff166000809054906101000a900473ffffffffffffffffffffffffffffffffffffffff1673ffffffffffffffffffffffffffffffffffffffff167f8be0079c531659141344cd1fd0a4f28419497f9722a3daafe3b4186f6b6457e060405160405180910390a3806000806101000a81548173ffffffffffffffffffffffffffffffffffffffff021916908373ffffffffffffffffffffffffffffffffffffffff16021790555050565b608060405190810160405280600081526020016060815260200160008152602001600081525090565b828054600181600116156101000203166002900490600052602060002090601f016020900481019282601f106115db57805160ff1916838001178555611609565b82800160010185558215611609579182015b828111156116085782518255916020019190600101906115ed565b5b509050611616919061161a565b5090565b61163c91905b80821115611638576000816000905550600101611620565b5090565b905600a165627a7a723058204db1ef7f6ea2d8daa315ca575cad1f715ea7580830a6309c26d07f5112729f560029",
  "source": "pragma solidity ^0.4.11;\r\nimport \"openzeppelin-solidity/contracts/ownership/Ownable.sol\";\r\nimport \"openzeppelin-solidity/contracts/lifecycle/Pausable.sol\";\r\nimport \"openzeppelin-solidity/contracts/math/SafeMath.sol\";\r\n\r\ncontract Store is Ownable, Pausable{\r\n    \r\n    using SafeMath for uint256;\r\n\r\n    address public owner;\r\n    string public storeName;\r\n    uint256 public balance;\r\n    uint256 public productCount;\r\n    \r\n    \r\n    struct EntityStruct{\r\n        Product product;\r\n        bool isEntity;\r\n    }\r\n    \r\n    struct Product {\r\n        uint id;\r\n        string name;\r\n        uint price;\r\n        uint stock;\r\n    }\r\n    \r\n    mapping(uint => EntityStruct) public products;\r\n    mapping (address => uint) pendingWithdrawals;\r\n    \r\n    /* Events */\r\n    \r\n    event NewProductAdded(uint productId);\r\n    event ProductPriceUpdatedSuccessfully(uint productId, uint newPrice);\r\n    event ProductPurchaseSuccessful(uint productId, uint remainingStock);\r\n    \r\n    \r\n    \r\n    constructor(string _storeName) public {\r\n        storeName = _storeName;\r\n        balance = 0;\r\n        productCount = 0;\r\n    }\r\n    \r\n    function isProductValid(Product product) private pure returns (bool isValid) {\r\n        return (product.price > 0 );\r\n    } \r\n    \r\n    \r\n    /**\r\n     * @notice Add a new product to the store\r\n     * @param _id Id of the new product\r\n     * @param _name Name of the new product\r\n     * @param _price Price of the new product on WEI\r\n     * @param _stock Initial stock of the new product\r\n     */\r\n    function addNewProduct(uint _id, string _name, uint _price, uint _stock) public onlyOwner whenNotPaused returns (bool success) {\r\n        Product memory newProduct = Product(_id, _name, _price, _stock);\r\n        if (isProductValid(newProduct)) {\r\n            products[_id].product = newProduct;\r\n            products[_id].isEntity = true;\r\n            emit NewProductAdded(_id);\r\n            return true;\r\n        }\r\n        return false;\r\n    }\r\n    \r\n    /**\r\n     * @notice Update a product price\r\n     * @param _id Product to be updated \r\n     * @param _price New Price for the product on WEI\r\n     */\r\n    function updateProductPrice(uint _id, uint _price) public onlyOwner whenNotPaused returns (bool success){\r\n        require(products[_id].isEntity == true);\r\n        products[_id].product.price = _price;\r\n        emit ProductPriceUpdatedSuccessfully(_id,_price);\r\n        return true;\r\n    }\r\n    \r\n    /**\r\n     * @dev Get product by id\r\n     * @param _id Product Id \r\n     \r\n     */\r\n    function getProduct(uint _id) public view returns (string name, uint price, uint stock) {\r\n        require(products[_id].isEntity == true);\r\n        return (products[_id].product.name,\r\n                products[_id].product.price,\r\n                products[_id].product.stock);\r\n    }\r\n\r\n    /**\r\n     * @notice Buy a product\r\n     * @param _id Product to buy \r\n     * @param _quantity The number of product items\r\n     */\r\n    function buyProduct(uint _id, uint _quantity) public payable whenNotPaused returns (bool success) {\r\n        Product memory product = products[_id].product;\r\n        uint totalPrice = product.price.mul(_quantity);\r\n        if (msg.value >= totalPrice && product.stock >= _quantity) {\r\n            balance = balance.add(msg.value);  \r\n            product.stock = product.stock.sub(_quantity);         \r\n            pendingWithdrawals[owner] = balance;\r\n            emit ProductPurchaseSuccessful(_id, product.stock);\r\n            return true;\r\n        }\r\n        return false;\r\n    }\r\n    \r\n    /**\r\n     * @notice Withdraw balance to the store owner\r\n     */\r\n    function withdraw() public onlyOwner {\r\n        uint amount = pendingWithdrawals[owner];\r\n        pendingWithdrawals[owner] = 0;\r\n        balance = 0;\r\n        msg.sender.transfer(amount);\r\n    }\r\n    \r\n\r\n    function getStoreName() returns (string) {\r\n        return storeName;\r\n    }\r\n    \r\n     function getStoreInfo() view public returns (string, uint256, uint256) {\r\n        return (storeName, balance , productCount);\r\n    }\r\n \r\n   \r\n \r\n}",
  "sourcePath": "C:\\Users\\Rodrigo\\Documents\\Consensys\\react-auth\\contracts\\Store.sol",
  "compiler": {
    "name": "solc",
    "version": "0.4.24+commit.e67f0147.Emscripten.clang"
  },
  "schemaVersion": "2.0.1",
  "updatedAt": "2018-08-27T02:06:50.678Z"
}