{
  "contractName": "Store",
  "abi": [
    {
      "inputs": [
        {
          "name": "_name",
          "type": "bytes32"
        }
      ],
      "payable": false,
      "stateMutability": "nonpayable",
      "type": "constructor"
    },
    {
      "constant": true,
      "inputs": [],
      "name": "getStoreName",
      "outputs": [
        {
          "name": "",
          "type": "bytes32"
        }
      ],
      "payable": false,
      "stateMutability": "view",
      "type": "function"
    }
  ],
  "bytecode": "0x6080604052600060035534801561001557600080fd5b5060405160208061013c83398101806040528101908080519060200190929190505050336000806101000a81548173ffffffffffffffffffffffffffffffffffffffff021916908373ffffffffffffffffffffffffffffffffffffffff16021790555080600181600019169055505060aa806100926000396000f300608060405260043610603f576000357c0100000000000000000000000000000000000000000000000000000000900463ffffffff168063d460a4ca146044575b600080fd5b348015604f57600080fd5b5060566074565b60405180826000191660001916815260200191505060405180910390f35b60006001549050905600a165627a7a72305820e70009377676b56fc19dcaba168495ed3ddc9e27bf2e7f962f12aad82835b16e0029",
  "source": "pragma solidity ^0.4.11;\r\n \r\ncontract Store {\r\n \r\n    address owner;\r\n    bytes32 name;\r\n    address factory;\r\n    uint count = 0;\r\n    uint balance;\r\n\r\n    struct Item{\r\n        string name;\r\n        uint price;\r\n        uint quantity;\r\n    }\r\n\r\n   \r\n    constructor(bytes32 _name) {\r\n        \r\n        owner = msg.sender;\r\n        name = _name;\r\n    }\r\n \r\n    function getStoreName() view public returns (bytes32) {\r\n        return name;\r\n    }\r\n    \r\n \r\n \r\n}\r\n ",
  "sourcePath": "C:\\Users\\Rodrigo\\Documents\\Consensys\\react-auth\\contracts\\Store.sol",
  "compiler": {
    "name": "solc",
    "version": "0.4.24+commit.e67f0147.Emscripten.clang"
  },
  "schemaVersion": "2.0.1",
  "updatedAt": "2018-08-25T18:39:10.071Z"
}