{
  "contractName": "Store",
  "abi": [
    {
      "constant": false,
      "inputs": [],
      "name": "unpause",
      "outputs": [],
      "payable": false,
      "stateMutability": "nonpayable",
      "type": "function"
    },
    {
      "constant": true,
      "inputs": [],
      "name": "storeName",
      "outputs": [
        {
          "name": "",
          "type": "string"
        }
      ],
      "payable": false,
      "stateMutability": "view",
      "type": "function"
    },
    {
      "constant": true,
      "inputs": [],
      "name": "paused",
      "outputs": [
        {
          "name": "",
          "type": "bool"
        }
      ],
      "payable": false,
      "stateMutability": "view",
      "type": "function"
    },
    {
      "constant": false,
      "inputs": [],
      "name": "renounceOwnership",
      "outputs": [],
      "payable": false,
      "stateMutability": "nonpayable",
      "type": "function"
    },
    {
      "constant": true,
      "inputs": [
        {
          "name": "",
          "type": "uint256"
        }
      ],
      "name": "products",
      "outputs": [
        {
          "components": [
            {
              "name": "id",
              "type": "uint256"
            },
            {
              "name": "name",
              "type": "string"
            },
            {
              "name": "price",
              "type": "uint256"
            },
            {
              "name": "stock",
              "type": "uint256"
            }
          ],
          "name": "product",
          "type": "tuple"
        },
        {
          "name": "isEntity",
          "type": "bool"
        }
      ],
      "payable": false,
      "stateMutability": "view",
      "type": "function"
    },
    {
      "constant": false,
      "inputs": [],
      "name": "pause",
      "outputs": [],
      "payable": false,
      "stateMutability": "nonpayable",
      "type": "function"
    },
    {
      "constant": true,
      "inputs": [],
      "name": "owner",
      "outputs": [
        {
          "name": "",
          "type": "address"
        }
      ],
      "payable": false,
      "stateMutability": "view",
      "type": "function"
    },
    {
      "constant": true,
      "inputs": [],
      "name": "balance",
      "outputs": [
        {
          "name": "",
          "type": "uint256"
        }
      ],
      "payable": false,
      "stateMutability": "view",
      "type": "function"
    },
    {
      "constant": true,
      "inputs": [],
      "name": "productCount",
      "outputs": [
        {
          "name": "",
          "type": "uint256"
        }
      ],
      "payable": false,
      "stateMutability": "view",
      "type": "function"
    },
    {
      "constant": false,
      "inputs": [
        {
          "name": "_newOwner",
          "type": "address"
        }
      ],
      "name": "transferOwnership",
      "outputs": [],
      "payable": false,
      "stateMutability": "nonpayable",
      "type": "function"
    },
    {
      "inputs": [
        {
          "name": "_storeName",
          "type": "string"
        }
      ],
      "payable": false,
      "stateMutability": "nonpayable",
      "type": "constructor"
    },
    {
      "anonymous": false,
      "inputs": [
        {
          "indexed": false,
          "name": "productId",
          "type": "uint256"
        }
      ],
      "name": "NewProductAdded",
      "type": "event"
    },
    {
      "anonymous": false,
      "inputs": [
        {
          "indexed": false,
          "name": "productId",
          "type": "uint256"
        },
        {
          "indexed": false,
          "name": "newPrice",
          "type": "uint256"
        }
      ],
      "name": "ProductPriceUpdatedSuccessfully",
      "type": "event"
    },
    {
      "anonymous": false,
      "inputs": [
        {
          "indexed": false,
          "name": "productId",
          "type": "uint256"
        },
        {
          "indexed": false,
          "name": "remainingStock",
          "type": "uint256"
        }
      ],
      "name": "ProductPurchaseSuccessful",
      "type": "event"
    },
    {
      "anonymous": false,
      "inputs": [],
      "name": "Pause",
      "type": "event"
    },
    {
      "anonymous": false,
      "inputs": [],
      "name": "Unpause",
      "type": "event"
    },
    {
      "anonymous": false,
      "inputs": [
        {
          "indexed": true,
          "name": "previousOwner",
          "type": "address"
        }
      ],
      "name": "OwnershipRenounced",
      "type": "event"
    },
    {
      "anonymous": false,
      "inputs": [
        {
          "indexed": true,
          "name": "previousOwner",
          "type": "address"
        },
        {
          "indexed": true,
          "name": "newOwner",
          "type": "address"
        }
      ],
      "name": "OwnershipTransferred",
      "type": "event"
    },
    {
      "constant": false,
      "inputs": [
        {
          "name": "_id",
          "type": "uint256"
        },
        {
          "name": "_name",
          "type": "string"
        },
        {
          "name": "_price",
          "type": "uint256"
        },
        {
          "name": "_stock",
          "type": "uint256"
        }
      ],
      "name": "addNewProduct",
      "outputs": [
        {
          "name": "success",
          "type": "bool"
        }
      ],
      "payable": false,
      "stateMutability": "nonpayable",
      "type": "function"
    },
    {
      "constant": false,
      "inputs": [
        {
          "name": "_id",
          "type": "uint256"
        },
        {
          "name": "_price",
          "type": "uint256"
        }
      ],
      "name": "updateProductPrice",
      "outputs": [
        {
          "name": "success",
          "type": "bool"
        }
      ],
      "payable": false,
      "stateMutability": "nonpayable",
      "type": "function"
    },
    {
      "constant": false,
      "inputs": [
        {
          "name": "_id",
          "type": "uint256"
        },
        {
          "name": "_quantity",
          "type": "uint256"
        }
      ],
      "name": "buyProduct",
      "outputs": [
        {
          "name": "success",
          "type": "bool"
        }
      ],
      "payable": true,
      "stateMutability": "payable",
      "type": "function"
    },
    {
      "constant": false,
      "inputs": [],
      "name": "withdraw",
      "outputs": [],
      "payable": false,
      "stateMutability": "nonpayable",
      "type": "function"
    },
    {
      "constant": false,
      "inputs": [],
      "name": "getStoreName",
      "outputs": [
        {
          "name": "",
          "type": "string"
        }
      ],
      "payable": false,
      "stateMutability": "nonpayable",
      "type": "function"
    },
    {
      "constant": true,
      "inputs": [],
      "name": "getStoreInfo",
      "outputs": [
        {
          "name": "",
          "type": "string"
        },
        {
          "name": "",
          "type": "uint256"
        },
        {
          "name": "",
          "type": "uint256"
        }
      ],
      "payable": false,
      "stateMutability": "view",
      "type": "function"
    }
  ],
  "bytecode": "0x608060405260008060146101000a81548160ff0219169083151502179055503480156200002b57600080fd5b50604051620015623803806200156283398101806040528101908080518201929190505050336000806101000a81548173ffffffffffffffffffffffffffffffffffffffff021916908373ffffffffffffffffffffffffffffffffffffffff1602179055508060029080519060200190620000a8929190620000c0565b5060006003819055506000600481905550506200016f565b828054600181600116156101000203166002900490600052602060002090601f016020900481019282601f106200010357805160ff191683800117855562000134565b8280016001018555821562000134579182015b828111156200013357825182559160200191906001019062000116565b5b50905062000143919062000147565b5090565b6200016c91905b80821115620001685760008160009055506001016200014e565b5090565b90565b6113e3806200017f6000396000f3006080604052600436106100e6576000357c0100000000000000000000000000000000000000000000000000000000900463ffffffff1680633ccfd60b146100eb5780633f4ba83a14610102578063521936e61461011957806353b62866146101a95780635c975abb146101eb578063715018a61461021a5780637acc0b20146102315780638456cb591461027d57806387934b39146102945780638da5cb5b146103335780639c3bddb21461038a578063b69ef8a8146103d9578063ca15d64a14610404578063d460a4ca146104a2578063e0f6ef8714610532578063f2fde38b1461055d575b600080fd5b3480156100f757600080fd5b506101006105a0565b005b34801561010e57600080fd5b5061011761071a565b005b34801561012557600080fd5b5061012e6107d8565b6040518080602001828103825283818151815260200191508051906020019080838360005b8381101561016e578082015181840152602081019050610153565b50505050905090810190601f16801561019b5780820380516001836020036101000a031916815260200191505b509250505060405180910390f35b6101d16004803603810190808035906020019092919080359060200190929190505050610876565b604051808215151515815260200191505060405180910390f35b3480156101f757600080fd5b50610200610a84565b604051808215151515815260200191505060405180910390f35b34801561022657600080fd5b5061022f610a97565b005b34801561023d57600080fd5b5061025c60048036038101908080359060200190929190505050610b99565b60405180838152602001821515151581526020019250505060405180910390f35b34801561028957600080fd5b50610292610c95565b005b3480156102a057600080fd5b5061031960048036038101908080359060200190929190803590602001908201803590602001908080601f01602080910402602001604051908101604052809392919081815260200183838082843782019150505050505091929192908035906020019092919080359060200190929190505050610d55565b604051808215151515815260200191505060405180910390f35b34801561033f57600080fd5b50610348610eda565b604051808273ffffffffffffffffffffffffffffffffffffffff1673ffffffffffffffffffffffffffffffffffffffff16815260200191505060405180910390f35b34801561039657600080fd5b506103bf6004803603810190808035906020019092919080359060200190929190505050610f00565b604051808215151515815260200191505060405180910390f35b3480156103e557600080fd5b506103ee611016565b6040518082815260200191505060405180910390f35b34801561041057600080fd5b5061041961101c565b6040518080602001848152602001838152602001828103825285818151815260200191508051906020019080838360005b8381101561046557808201518184015260208101905061044a565b50505050905090810190601f1680156104925780820380516001836020036101000a031916815260200191505b5094505050505060405180910390f35b3480156104ae57600080fd5b506104b76110d0565b6040518080602001828103825283818151815260200191508051906020019080838360005b838110156104f75780820151818401526020810190506104dc565b50505050905090810190601f1680156105245780820380516001836020036101000a031916815260200191505b509250505060405180910390f35b34801561053e57600080fd5b50610547611172565b6040518082815260200191505060405180910390f35b34801561056957600080fd5b5061059e600480360381019080803573ffffffffffffffffffffffffffffffffffffffff169060200190929190505050611178565b005b60008060009054906101000a900473ffffffffffffffffffffffffffffffffffffffff1673ffffffffffffffffffffffffffffffffffffffff163373ffffffffffffffffffffffffffffffffffffffff161415156105fd57600080fd5b60066000600160009054906101000a900473ffffffffffffffffffffffffffffffffffffffff1673ffffffffffffffffffffffffffffffffffffffff1673ffffffffffffffffffffffffffffffffffffffff168152602001908152602001600020549050600060066000600160009054906101000a900473ffffffffffffffffffffffffffffffffffffffff1673ffffffffffffffffffffffffffffffffffffffff1673ffffffffffffffffffffffffffffffffffffffff1681526020019081526020016000208190555060006003819055503373ffffffffffffffffffffffffffffffffffffffff166108fc829081150290604051600060405180830381858888f19350505050158015610716573d6000803e3d6000fd5b5050565b6000809054906101000a900473ffffffffffffffffffffffffffffffffffffffff1673ffffffffffffffffffffffffffffffffffffffff163373ffffffffffffffffffffffffffffffffffffffff1614151561077557600080fd5b600060149054906101000a900460ff16151561079057600080fd5b60008060146101000a81548160ff0219169083151502179055507f7805862f689e2f13df9f062ff482ad3ad112aca9e0847911ed832e158c525b3360405160405180910390a1565b60028054600181600116156101000203166002900480601f01602080910402602001604051908101604052809291908181526020018280546001816001161561010002031660029004801561086e5780601f106108435761010080835404028352916020019161086e565b820191906000526020600020905b81548152906001019060200180831161085157829003601f168201915b505050505081565b60006108806112e9565b60008060149054906101000a900460ff1615151561089d57600080fd5b600560008681526020019081526020016000206000016080604051908101604052908160008201548152602001600182018054600181600116156101000203166002900480601f0160208091040260200160405190810160405280929190818152602001828054600181600116156101000203166002900480156109625780601f1061093757610100808354040283529160200191610962565b820191906000526020600020905b81548152906001019060200180831161094557829003601f168201915b5050505050815260200160028201548152602001600382015481525050915083826040015102905080341015801561099e575083826060015110155b15610a7757346003600082825401925050819055508382606001818151039150818152505060035460066000600160009054906101000a900473ffffffffffffffffffffffffffffffffffffffff1673ffffffffffffffffffffffffffffffffffffffff1673ffffffffffffffffffffffffffffffffffffffff168152602001908152602001600020819055507f8822d705ed7af5f1ee8352bdc64a282c883a6158bde34619a31afdf8cd3ec9f1858360600151604051808381526020018281526020019250505060405180910390a160019250610a7c565b600092505b505092915050565b600060149054906101000a900460ff1681565b6000809054906101000a900473ffffffffffffffffffffffffffffffffffffffff1673ffffffffffffffffffffffffffffffffffffffff163373ffffffffffffffffffffffffffffffffffffffff16141515610af257600080fd5b6000809054906101000a900473ffffffffffffffffffffffffffffffffffffffff1673ffffffffffffffffffffffffffffffffffffffff167ff8df31144d9c2f0f6b59d69b8b98abd5459d07f2742c4df920b25aae33c6482060405160405180910390a260008060006101000a81548173ffffffffffffffffffffffffffffffffffffffff021916908373ffffffffffffffffffffffffffffffffffffffff160217905550565b6005602052806000526040600020600091509050806000016080604051908101604052908160008201548152602001600182018054600181600116156101000203166002900480601f016020809104026020016040519081016040528092919081815260200182805460018160011615610100020316600290048015610c605780601f10610c3557610100808354040283529160200191610c60565b820191906000526020600020905b815481529060010190602001808311610c4357829003601f168201915b5050505050815260200160028201548152602001600382015481525050908060040160009054906101000a900460ff16905082565b6000809054906101000a900473ffffffffffffffffffffffffffffffffffffffff1673ffffffffffffffffffffffffffffffffffffffff163373ffffffffffffffffffffffffffffffffffffffff16141515610cf057600080fd5b600060149054906101000a900460ff16151515610d0c57600080fd5b6001600060146101000a81548160ff0219169083151502179055507f6985a02210a168e66602d3235cb6db0e70f92b3ba4d376a33c0f3d9434bff62560405160405180910390a1565b6000610d5f6112e9565b6000809054906101000a900473ffffffffffffffffffffffffffffffffffffffff1673ffffffffffffffffffffffffffffffffffffffff163373ffffffffffffffffffffffffffffffffffffffff16141515610dba57600080fd5b600060149054906101000a900460ff16151515610dd657600080fd5b608060405190810160405280878152602001868152602001858152602001848152509050610e03816111df565b15610ecc578060056000888152602001908152602001600020600001600082015181600001556020820151816001019080519060200190610e45929190611312565b50604082015181600201556060820151816003015590505060016005600088815260200190815260200160002060040160006101000a81548160ff0219169083151502179055507f6770397cf8581b9596e7c96436ebe004d3324516d97996fbecd02970dc2cbd27866040518082815260200191505060405180910390a160019150610ed1565b600091505b50949350505050565b600160009054906101000a900473ffffffffffffffffffffffffffffffffffffffff1681565b60008060009054906101000a900473ffffffffffffffffffffffffffffffffffffffff1673ffffffffffffffffffffffffffffffffffffffff163373ffffffffffffffffffffffffffffffffffffffff16141515610f5d57600080fd5b600060149054906101000a900460ff16151515610f7957600080fd5b600115156005600085815260200190815260200160002060040160009054906101000a900460ff161515141515610faf57600080fd5b8160056000858152602001908152602001600020600001600201819055507f76f50c1b11fef3f41d01f801097db5d7503b7194c5db4a88600d8a8be235db7c8383604051808381526020018281526020019250505060405180910390a16001905092915050565b60035481565b60606000806002600354600454828054600181600116156101000203166002900480601f0160208091040260200160405190810160405280929190818152602001828054600181600116156101000203166002900480156110be5780601f10611093576101008083540402835291602001916110be565b820191906000526020600020905b8154815290600101906020018083116110a157829003601f168201915b50505050509250925092509250909192565b606060028054600181600116156101000203166002900480601f0160208091040260200160405190810160405280929190818152602001828054600181600116156101000203166002900480156111685780601f1061113d57610100808354040283529160200191611168565b820191906000526020600020905b81548152906001019060200180831161114b57829003601f168201915b5050505050905090565b60045481565b6000809054906101000a900473ffffffffffffffffffffffffffffffffffffffff1673ffffffffffffffffffffffffffffffffffffffff163373ffffffffffffffffffffffffffffffffffffffff161415156111d357600080fd5b6111dc816111ef565b50565b6000808260400151119050919050565b600073ffffffffffffffffffffffffffffffffffffffff168173ffffffffffffffffffffffffffffffffffffffff161415151561122b57600080fd5b8073ffffffffffffffffffffffffffffffffffffffff166000809054906101000a900473ffffffffffffffffffffffffffffffffffffffff1673ffffffffffffffffffffffffffffffffffffffff167f8be0079c531659141344cd1fd0a4f28419497f9722a3daafe3b4186f6b6457e060405160405180910390a3806000806101000a81548173ffffffffffffffffffffffffffffffffffffffff021916908373ffffffffffffffffffffffffffffffffffffffff16021790555050565b608060405190810160405280600081526020016060815260200160008152602001600081525090565b828054600181600116156101000203166002900490600052602060002090601f016020900481019282601f1061135357805160ff1916838001178555611381565b82800160010185558215611381579182015b82811115611380578251825591602001919060010190611365565b5b50905061138e9190611392565b5090565b6113b491905b808211156113b0576000816000905550600101611398565b5090565b905600a165627a7a72305820e981c4d1d48c904c98e376e489dd32379626bbb55fbf90e7410b05fbf2faec8e0029",
  "source": "pragma solidity ^0.4.11;\r\nimport \"openzeppelin-solidity/contracts/ownership/Ownable.sol\";\r\nimport \"openzeppelin-solidity/contracts/lifecycle/Pausable.sol\";\r\n\r\ncontract Store is Ownable, Pausable{\r\n \r\n    address public owner;\r\n    string public storeName;\r\n    uint256 public balance;\r\n    uint256 public productCount;\r\n    \r\n    \r\n    struct EntityStruct{\r\n        Product product;\r\n        bool isEntity;\r\n    }\r\n    \r\n    struct Product {\r\n        uint id;\r\n        string name;\r\n        uint price;\r\n        uint stock;\r\n    }\r\n    \r\n    mapping(uint => EntityStruct) public products;\r\n    mapping (address => uint) pendingWithdrawals;\r\n    \r\n    /* Events */\r\n    \r\n    event NewProductAdded(uint productId);\r\n    event ProductPriceUpdatedSuccessfully(uint productId, uint newPrice);\r\n    event ProductPurchaseSuccessful(uint productId, uint remainingStock);\r\n    \r\n    \r\n    \r\n    constructor(string _storeName) public {\r\n        storeName = _storeName;\r\n       balance = 0;\r\n       productCount = 0;\r\n    }\r\n    \r\n    function isProductValid(Product product) private pure returns (bool isValid) {\r\n        return (product.price > 0 );\r\n    } \r\n    \r\n    \r\n    /**\r\n     * @notice Add a new product to the store\r\n     * @param _id Id of the new product\r\n     * @param _name Name of the new product\r\n     * @param _price Price of the new product on WEI\r\n     * @param _stock Initial stock of the new product\r\n     */\r\n    function addNewProduct(uint _id, string _name, uint _price, uint _stock) public onlyOwner whenNotPaused returns (bool success) {\r\n        Product memory newProduct = Product(_id, _name, _price, _stock);\r\n        if (isProductValid(newProduct)) {\r\n            products[_id].product = newProduct;\r\n            products[_id].isEntity = true;\r\n            emit NewProductAdded(_id);\r\n            return true;\r\n        }\r\n        return false;\r\n    }\r\n    \r\n    /**\r\n     * @notice Update a product price\r\n     * @param _id Product to be updated \r\n     * @param _price New Price for the product on WEI\r\n     */\r\n    function updateProductPrice(uint _id, uint _price) public onlyOwner whenNotPaused returns (bool success){\r\n        require(products[_id].isEntity == true);\r\n        products[_id].product.price = _price;\r\n        emit ProductPriceUpdatedSuccessfully(_id,_price);\r\n        return true;\r\n    }\r\n    \r\n    /**\r\n     * @notice Buy a product\r\n     * @param _id Product to buy \r\n     * @param _quantity The number of product items\r\n     */\r\n    function buyProduct(uint _id, uint _quantity) public payable whenNotPaused returns (bool success) {\r\n        Product memory product = products[_id].product;\r\n        uint totalPrice = product.price * _quantity;\r\n        if (msg.value >= totalPrice && product.stock >= _quantity) {\r\n            balance += msg.value;\r\n            product.stock -= _quantity;\r\n            pendingWithdrawals[owner] = balance;\r\n            emit ProductPurchaseSuccessful(_id, product.stock);\r\n            return true;\r\n        }\r\n        return false;\r\n    }\r\n    \r\n    /**\r\n     * @notice Withdraw balance to the store owner\r\n     */\r\n    function withdraw() public onlyOwner {\r\n        uint amount = pendingWithdrawals[owner];\r\n        pendingWithdrawals[owner] = 0;\r\n        balance = 0;\r\n        msg.sender.transfer(amount);\r\n    }\r\n    \r\n\r\n    function getStoreName() returns (string) {\r\n        return storeName;\r\n    }\r\n    \r\n     function getStoreInfo() view public returns (string, uint256, uint256) {\r\n        return (storeName, balance , productCount);\r\n    }\r\n \r\n   \r\n \r\n}",
  "sourcePath": "C:\\Users\\Rodrigo\\Documents\\Consensys\\react-auth\\contracts\\Store.sol",
  "compiler": {
    "name": "solc",
    "version": "0.4.24+commit.e67f0147.Emscripten.clang"
  },
  "schemaVersion": "2.0.1",
  "updatedAt": "2018-08-26T23:38:21.440Z"
}