{
  "contractName": "Store",
  "abi": [
    {
      "constant": true,
      "inputs": [],
      "name": "storeName",
      "outputs": [
        {
          "name": "",
          "type": "bytes32"
        }
      ],
      "payable": false,
      "stateMutability": "view",
      "type": "function"
    },
    {
      "constant": false,
      "inputs": [],
      "name": "renounceOwnership",
      "outputs": [],
      "payable": false,
      "stateMutability": "nonpayable",
      "type": "function"
    },
    {
      "constant": true,
      "inputs": [
        {
          "name": "",
          "type": "uint256"
        }
      ],
      "name": "products",
      "outputs": [
        {
          "name": "id",
          "type": "uint256"
        },
        {
          "name": "name",
          "type": "bytes32"
        },
        {
          "name": "price",
          "type": "uint256"
        },
        {
          "name": "stock",
          "type": "uint256"
        }
      ],
      "payable": false,
      "stateMutability": "view",
      "type": "function"
    },
    {
      "constant": true,
      "inputs": [],
      "name": "owner",
      "outputs": [
        {
          "name": "",
          "type": "address"
        }
      ],
      "payable": false,
      "stateMutability": "view",
      "type": "function"
    },
    {
      "constant": true,
      "inputs": [],
      "name": "balance",
      "outputs": [
        {
          "name": "",
          "type": "uint256"
        }
      ],
      "payable": false,
      "stateMutability": "view",
      "type": "function"
    },
    {
      "constant": true,
      "inputs": [],
      "name": "productCount",
      "outputs": [
        {
          "name": "",
          "type": "uint256"
        }
      ],
      "payable": false,
      "stateMutability": "view",
      "type": "function"
    },
    {
      "constant": false,
      "inputs": [
        {
          "name": "_newOwner",
          "type": "address"
        }
      ],
      "name": "transferOwnership",
      "outputs": [],
      "payable": false,
      "stateMutability": "nonpayable",
      "type": "function"
    },
    {
      "inputs": [
        {
          "name": "_storeName",
          "type": "bytes32"
        }
      ],
      "payable": false,
      "stateMutability": "nonpayable",
      "type": "constructor"
    },
    {
      "anonymous": false,
      "inputs": [
        {
          "indexed": false,
          "name": "productId",
          "type": "uint256"
        }
      ],
      "name": "NewProductAdded",
      "type": "event"
    },
    {
      "anonymous": false,
      "inputs": [
        {
          "indexed": true,
          "name": "previousOwner",
          "type": "address"
        }
      ],
      "name": "OwnershipRenounced",
      "type": "event"
    },
    {
      "anonymous": false,
      "inputs": [
        {
          "indexed": true,
          "name": "previousOwner",
          "type": "address"
        },
        {
          "indexed": true,
          "name": "newOwner",
          "type": "address"
        }
      ],
      "name": "OwnershipTransferred",
      "type": "event"
    },
    {
      "constant": false,
      "inputs": [
        {
          "name": "id",
          "type": "uint256"
        },
        {
          "name": "name",
          "type": "bytes32"
        },
        {
          "name": "price",
          "type": "uint256"
        },
        {
          "name": "stock",
          "type": "uint256"
        }
      ],
      "name": "addNewProduct",
      "outputs": [
        {
          "name": "success",
          "type": "bool"
        }
      ],
      "payable": false,
      "stateMutability": "nonpayable",
      "type": "function"
    },
    {
      "constant": true,
      "inputs": [],
      "name": "getStoreName",
      "outputs": [
        {
          "name": "",
          "type": "bytes32"
        }
      ],
      "payable": false,
      "stateMutability": "view",
      "type": "function"
    }
  ],
  "bytecode": "0x608060405234801561001057600080fd5b506040516020806107c883398101806040528101908080519060200190929190505050336000806101000a81548173ffffffffffffffffffffffffffffffffffffffff021916908373ffffffffffffffffffffffffffffffffffffffff16021790555080600181600019169055505061073a8061008e6000396000f300608060405260043610610099576000357c0100000000000000000000000000000000000000000000000000000000900463ffffffff168063521936e61461009e578063715018a6146100d15780637acc0b20146100e85780638da5cb5b14610146578063947fe3ab1461019d578063b69ef8a814610204578063d460a4ca1461022f578063e0f6ef8714610262578063f2fde38b1461028d575b600080fd5b3480156100aa57600080fd5b506100b36102d0565b60405180826000191660001916815260200191505060405180910390f35b3480156100dd57600080fd5b506100e66102d6565b005b3480156100f457600080fd5b50610113600480360381019080803590602001909291905050506103d8565b60405180858152602001846000191660001916815260200183815260200182815260200194505050505060405180910390f35b34801561015257600080fd5b5061015b610408565b604051808273ffffffffffffffffffffffffffffffffffffffff1673ffffffffffffffffffffffffffffffffffffffff16815260200191505060405180910390f35b3480156101a957600080fd5b506101ea600480360381019080803590602001909291908035600019169060200190929190803590602001909291908035906020019092919050505061042d565b604051808215151515815260200191505060405180910390f35b34801561021057600080fd5b5061021961055b565b6040518082815260200191505060405180910390f35b34801561023b57600080fd5b50610244610561565b60405180826000191660001916815260200191505060405180910390f35b34801561026e57600080fd5b5061027761056b565b6040518082815260200191505060405180910390f35b34801561029957600080fd5b506102ce600480360381019080803573ffffffffffffffffffffffffffffffffffffffff169060200190929190505050610571565b005b60015481565b6000809054906101000a900473ffffffffffffffffffffffffffffffffffffffff1673ffffffffffffffffffffffffffffffffffffffff163373ffffffffffffffffffffffffffffffffffffffff1614151561033157600080fd5b6000809054906101000a900473ffffffffffffffffffffffffffffffffffffffff1673ffffffffffffffffffffffffffffffffffffffff167ff8df31144d9c2f0f6b59d69b8b98abd5459d07f2742c4df920b25aae33c6482060405160405180910390a260008060006101000a81548173ffffffffffffffffffffffffffffffffffffffff021916908373ffffffffffffffffffffffffffffffffffffffff160217905550565b60046020528060005260406000206000915090508060000154908060010154908060020154908060030154905084565b6000809054906101000a900473ffffffffffffffffffffffffffffffffffffffff1681565b60006104376106e2565b6000809054906101000a900473ffffffffffffffffffffffffffffffffffffffff1673ffffffffffffffffffffffffffffffffffffffff163373ffffffffffffffffffffffffffffffffffffffff1614151561049257600080fd5b608060405190810160405280878152602001866000191681526020018581526020018481525090506104c3816105d8565b1561054d578060046000888152602001908152602001600020600082015181600001556020820151816001019060001916905560408201518160020155606082015181600301559050507f6770397cf8581b9596e7c96436ebe004d3324516d97996fbecd02970dc2cbd27866040518082815260200191505060405180910390a160019150610552565b600091505b50949350505050565b60025481565b6000600154905090565b60035481565b6000809054906101000a900473ffffffffffffffffffffffffffffffffffffffff1673ffffffffffffffffffffffffffffffffffffffff163373ffffffffffffffffffffffffffffffffffffffff161415156105cc57600080fd5b6105d5816105e8565b50565b6000808260400151119050919050565b600073ffffffffffffffffffffffffffffffffffffffff168173ffffffffffffffffffffffffffffffffffffffff161415151561062457600080fd5b8073ffffffffffffffffffffffffffffffffffffffff166000809054906101000a900473ffffffffffffffffffffffffffffffffffffffff1673ffffffffffffffffffffffffffffffffffffffff167f8be0079c531659141344cd1fd0a4f28419497f9722a3daafe3b4186f6b6457e060405160405180910390a3806000806101000a81548173ffffffffffffffffffffffffffffffffffffffff021916908373ffffffffffffffffffffffffffffffffffffffff16021790555050565b6080604051908101604052806000815260200160008019168152602001600081526020016000815250905600a165627a7a72305820abb051a0d3e08ec3fe8783ac49d3ff747d2567658b01adc5b403ae60889d69600029",
  "source": "pragma solidity ^0.4.11;\r\nimport \"openzeppelin-solidity/contracts/ownership/Ownable.sol\";\r\n\r\ncontract Store is Ownable{\r\n \r\n    bytes32 public storeName;\r\n    uint256 public balance;\r\n    uint256 public productCount;\r\n    \r\n    struct Product {\r\n        uint id;\r\n        bytes32 name;\r\n        uint price;\r\n        uint stock;\r\n    }\r\n    \r\n    mapping(uint => Product) public products;\r\n    \r\n    \r\n    event NewProductAdded(uint productId);\r\n    \r\n    constructor(bytes32 _storeName) public {\r\n        storeName = _storeName;\r\n    }\r\n    \r\n    function isProductValid(Product product) private pure returns (bool isValid) {\r\n        return (product.price > 0 );\r\n    } \r\n    \r\n    \r\n    function addNewProduct(uint id, bytes32 name, uint price, uint stock) public onlyOwner returns (bool success) {\r\n        Product memory newProduct = Product(id, name, price, stock);\r\n        if (isProductValid(newProduct)) {\r\n            products[id] = newProduct;\r\n            emit NewProductAdded(id);\r\n            return true;\r\n        }\r\n        return false;\r\n    }\r\n    \r\n    /*function removeProduct(uint id, uint quantity) public onlyOwner returns (bool success){\r\n        Product memory product = products[id];\r\n        if (product.id == id) {\r\n            uint actualStock = products[id].stock;\r\n            products[id].stock = actualStock - quantity;\r\n            //emit ProductRemoved(id, products[id].stock);\r\n            return true;\r\n        }\r\n        return false;\r\n    }*/\r\n    \r\n \r\n    function getStoreName() view public returns (bytes32) {\r\n        return storeName;\r\n    }\r\n    \r\n    \r\n   \r\n \r\n}\r\n ",
  "sourcePath": "C:\\Users\\Rodrigo\\Documents\\Consensys\\react-auth\\contracts\\Store.sol",
  "compiler": {
    "name": "solc",
    "version": "0.4.24+commit.e67f0147.Emscripten.clang"
  },
  "schemaVersion": "2.0.1",
  "updatedAt": "2018-08-26T04:18:39.047Z"
}