{
  "contractName": "Store",
  "abi": [
    {
      "constant": false,
      "inputs": [],
      "name": "unpause",
      "outputs": [],
      "payable": false,
      "stateMutability": "nonpayable",
      "type": "function"
    },
    {
      "constant": true,
      "inputs": [],
      "name": "storeName",
      "outputs": [
        {
          "name": "",
          "type": "string"
        }
      ],
      "payable": false,
      "stateMutability": "view",
      "type": "function"
    },
    {
      "constant": true,
      "inputs": [],
      "name": "paused",
      "outputs": [
        {
          "name": "",
          "type": "bool"
        }
      ],
      "payable": false,
      "stateMutability": "view",
      "type": "function"
    },
    {
      "constant": false,
      "inputs": [],
      "name": "renounceOwnership",
      "outputs": [],
      "payable": false,
      "stateMutability": "nonpayable",
      "type": "function"
    },
    {
      "constant": true,
      "inputs": [
        {
          "name": "",
          "type": "uint256"
        }
      ],
      "name": "products",
      "outputs": [
        {
          "components": [
            {
              "name": "id",
              "type": "uint256"
            },
            {
              "name": "name",
              "type": "string"
            },
            {
              "name": "price",
              "type": "uint256"
            },
            {
              "name": "stock",
              "type": "uint256"
            }
          ],
          "name": "product",
          "type": "tuple"
        },
        {
          "name": "isEntity",
          "type": "bool"
        }
      ],
      "payable": false,
      "stateMutability": "view",
      "type": "function"
    },
    {
      "constant": true,
      "inputs": [],
      "name": "storeOwner",
      "outputs": [
        {
          "name": "",
          "type": "address"
        }
      ],
      "payable": false,
      "stateMutability": "view",
      "type": "function"
    },
    {
      "constant": false,
      "inputs": [],
      "name": "pause",
      "outputs": [],
      "payable": false,
      "stateMutability": "nonpayable",
      "type": "function"
    },
    {
      "constant": true,
      "inputs": [],
      "name": "owner",
      "outputs": [
        {
          "name": "",
          "type": "address"
        }
      ],
      "payable": false,
      "stateMutability": "view",
      "type": "function"
    },
    {
      "constant": true,
      "inputs": [],
      "name": "balance",
      "outputs": [
        {
          "name": "",
          "type": "uint256"
        }
      ],
      "payable": false,
      "stateMutability": "view",
      "type": "function"
    },
    {
      "constant": true,
      "inputs": [],
      "name": "productCount",
      "outputs": [
        {
          "name": "",
          "type": "uint256"
        }
      ],
      "payable": false,
      "stateMutability": "view",
      "type": "function"
    },
    {
      "constant": false,
      "inputs": [
        {
          "name": "_newOwner",
          "type": "address"
        }
      ],
      "name": "transferOwnership",
      "outputs": [],
      "payable": false,
      "stateMutability": "nonpayable",
      "type": "function"
    },
    {
      "inputs": [
        {
          "name": "_storeOwner",
          "type": "address"
        },
        {
          "name": "_storeName",
          "type": "string"
        }
      ],
      "payable": false,
      "stateMutability": "nonpayable",
      "type": "constructor"
    },
    {
      "anonymous": false,
      "inputs": [
        {
          "indexed": false,
          "name": "productId",
          "type": "uint256"
        }
      ],
      "name": "ProductAdded",
      "type": "event"
    },
    {
      "anonymous": false,
      "inputs": [
        {
          "indexed": false,
          "name": "productId",
          "type": "uint256"
        },
        {
          "indexed": false,
          "name": "newPrice",
          "type": "uint256"
        }
      ],
      "name": "ProductPriceUpdatedSuccessfully",
      "type": "event"
    },
    {
      "anonymous": false,
      "inputs": [
        {
          "indexed": false,
          "name": "productId",
          "type": "uint256"
        },
        {
          "indexed": false,
          "name": "remainingStock",
          "type": "uint256"
        }
      ],
      "name": "ProductPurchaseSuccessful",
      "type": "event"
    },
    {
      "anonymous": false,
      "inputs": [],
      "name": "Pause",
      "type": "event"
    },
    {
      "anonymous": false,
      "inputs": [],
      "name": "Unpause",
      "type": "event"
    },
    {
      "anonymous": false,
      "inputs": [
        {
          "indexed": true,
          "name": "previousOwner",
          "type": "address"
        }
      ],
      "name": "OwnershipRenounced",
      "type": "event"
    },
    {
      "anonymous": false,
      "inputs": [
        {
          "indexed": true,
          "name": "previousOwner",
          "type": "address"
        },
        {
          "indexed": true,
          "name": "newOwner",
          "type": "address"
        }
      ],
      "name": "OwnershipTransferred",
      "type": "event"
    },
    {
      "constant": false,
      "inputs": [
        {
          "name": "_id",
          "type": "uint256"
        },
        {
          "name": "_name",
          "type": "string"
        },
        {
          "name": "_price",
          "type": "uint256"
        },
        {
          "name": "_stock",
          "type": "uint256"
        }
      ],
      "name": "addNewProduct",
      "outputs": [
        {
          "name": "success",
          "type": "bool"
        }
      ],
      "payable": false,
      "stateMutability": "nonpayable",
      "type": "function"
    },
    {
      "constant": false,
      "inputs": [
        {
          "name": "_id",
          "type": "uint256"
        },
        {
          "name": "_price",
          "type": "uint256"
        }
      ],
      "name": "updateProductPrice",
      "outputs": [
        {
          "name": "success",
          "type": "bool"
        }
      ],
      "payable": false,
      "stateMutability": "nonpayable",
      "type": "function"
    },
    {
      "constant": true,
      "inputs": [
        {
          "name": "_id",
          "type": "uint256"
        }
      ],
      "name": "getProduct",
      "outputs": [
        {
          "name": "name",
          "type": "string"
        },
        {
          "name": "price",
          "type": "uint256"
        },
        {
          "name": "stock",
          "type": "uint256"
        }
      ],
      "payable": false,
      "stateMutability": "view",
      "type": "function"
    },
    {
      "constant": false,
      "inputs": [
        {
          "name": "_id",
          "type": "uint256"
        },
        {
          "name": "_quantity",
          "type": "uint256"
        }
      ],
      "name": "buyProduct",
      "outputs": [
        {
          "name": "success",
          "type": "bool"
        }
      ],
      "payable": true,
      "stateMutability": "payable",
      "type": "function"
    },
    {
      "constant": false,
      "inputs": [],
      "name": "withdraw",
      "outputs": [],
      "payable": false,
      "stateMutability": "nonpayable",
      "type": "function"
    },
    {
      "constant": false,
      "inputs": [],
      "name": "getStoreName",
      "outputs": [
        {
          "name": "",
          "type": "string"
        }
      ],
      "payable": false,
      "stateMutability": "nonpayable",
      "type": "function"
    },
    {
      "constant": true,
      "inputs": [],
      "name": "getStoreInfo",
      "outputs": [
        {
          "name": "",
          "type": "string"
        },
        {
          "name": "",
          "type": "uint256"
        },
        {
          "name": "",
          "type": "uint256"
        }
      ],
      "payable": false,
      "stateMutability": "view",
      "type": "function"
    }
  ],
  "bytecode": "0x608060405260008060146101000a81548160ff0219169083151502179055503480156200002b57600080fd5b5060405162001838380380620018388339810180604052810190808051906020019092919080518201929190505050336000806101000a81548173ffffffffffffffffffffffffffffffffffffffff021916908373ffffffffffffffffffffffffffffffffffffffff16021790555081600160006101000a81548173ffffffffffffffffffffffffffffffffffffffff021916908373ffffffffffffffffffffffffffffffffffffffff1602179055508060029080519060200190620000f39291906200010c565b50600060038190555060006004819055505050620001bb565b828054600181600116156101000203166002900490600052602060002090601f016020900481019282601f106200014f57805160ff191683800117855562000180565b8280016001018555821562000180579182015b828111156200017f57825182559160200191906001019062000162565b5b5090506200018f919062000193565b5090565b620001b891905b80821115620001b45760008160009055506001016200019a565b5090565b90565b61166d80620001cb6000396000f3006080604052600436106100fc576000357c0100000000000000000000000000000000000000000000000000000000900463ffffffff1680633ccfd60b146101015780633f4ba83a14610118578063521936e61461012f57806353b62866146101bf5780635c975abb14610201578063715018a6146102305780637acc0b2014610247578063818fb3e0146102935780638456cb59146102ea57806387934b39146103015780638da5cb5b146103a05780639c3bddb2146103f7578063b69ef8a814610446578063b9db15b414610471578063ca15d64a14610525578063d460a4ca146105c3578063e0f6ef8714610653578063f2fde38b1461067e575b600080fd5b34801561010d57600080fd5b506101166106c1565b005b34801561012457600080fd5b5061012d61083a565b005b34801561013b57600080fd5b506101446108f8565b6040518080602001828103825283818151815260200191508051906020019080838360005b83811015610184578082015181840152602081019050610169565b50505050905090810190601f1680156101b15780820380516001836020036101000a031916815260200191505b509250505060405180910390f35b6101e76004803603810190808035906020019092919080359060200190929190505050610996565b604051808215151515815260200191505060405180910390f35b34801561020d57600080fd5b50610216610b49565b604051808215151515815260200191505060405180910390f35b34801561023c57600080fd5b50610245610b5c565b005b34801561025357600080fd5b5061027260048036038101908080359060200190929190505050610c5e565b60405180838152602001821515151581526020019250505060405180910390f35b34801561029f57600080fd5b506102a8610d5a565b604051808273ffffffffffffffffffffffffffffffffffffffff1673ffffffffffffffffffffffffffffffffffffffff16815260200191505060405180910390f35b3480156102f657600080fd5b506102ff610d80565b005b34801561030d57600080fd5b5061038660048036038101908080359060200190929190803590602001908201803590602001908080601f01602080910402602001604051908101604052809392919081815260200183838082843782019150505050505091929192908035906020019092919080359060200190929190505050610e40565b604051808215151515815260200191505060405180910390f35b3480156103ac57600080fd5b506103b5610fc6565b604051808273ffffffffffffffffffffffffffffffffffffffff1673ffffffffffffffffffffffffffffffffffffffff16815260200191505060405180910390f35b34801561040357600080fd5b5061042c6004803603810190808035906020019092919080359060200190929190505050610feb565b604051808215151515815260200191505060405180910390f35b34801561045257600080fd5b5061045b611102565b6040518082815260200191505060405180910390f35b34801561047d57600080fd5b5061049c60048036038101908080359060200190929190505050611108565b6040518080602001848152602001838152602001828103825285818151815260200191508051906020019080838360005b838110156104e85780820151818401526020810190506104cd565b50505050905090810190601f1680156105155780820380516001836020036101000a031916815260200191505b5094505050505060405180910390f35b34801561053157600080fd5b5061053a611239565b6040518080602001848152602001838152602001828103825285818151815260200191508051906020019080838360005b8381101561058657808201518184015260208101905061056b565b50505050905090810190601f1680156105b35780820380516001836020036101000a031916815260200191505b5094505050505060405180910390f35b3480156105cf57600080fd5b506105d86112ed565b6040518080602001828103825283818151815260200191508051906020019080838360005b838110156106185780820151818401526020810190506105fd565b50505050905090810190601f1680156106455780820380516001836020036101000a031916815260200191505b509250505060405180910390f35b34801561065f57600080fd5b5061066861138f565b6040518082815260200191505060405180910390f35b34801561068a57600080fd5b506106bf600480360381019080803573ffffffffffffffffffffffffffffffffffffffff169060200190929190505050611395565b005b6000600160009054906101000a900473ffffffffffffffffffffffffffffffffffffffff1673ffffffffffffffffffffffffffffffffffffffff163373ffffffffffffffffffffffffffffffffffffffff1614151561071f57600080fd5b600660008060009054906101000a900473ffffffffffffffffffffffffffffffffffffffff1673ffffffffffffffffffffffffffffffffffffffff1673ffffffffffffffffffffffffffffffffffffffff1681526020019081526020016000205490506000600660008060009054906101000a900473ffffffffffffffffffffffffffffffffffffffff1673ffffffffffffffffffffffffffffffffffffffff1673ffffffffffffffffffffffffffffffffffffffff1681526020019081526020016000208190555060006003819055503373ffffffffffffffffffffffffffffffffffffffff166108fc829081150290604051600060405180830381858888f19350505050158015610836573d6000803e3d6000fd5b5050565b6000809054906101000a900473ffffffffffffffffffffffffffffffffffffffff1673ffffffffffffffffffffffffffffffffffffffff163373ffffffffffffffffffffffffffffffffffffffff1614151561089557600080fd5b600060149054906101000a900460ff1615156108b057600080fd5b60008060146101000a81548160ff0219169083151502179055507f7805862f689e2f13df9f062ff482ad3ad112aca9e0847911ed832e158c525b3360405160405180910390a1565b60028054600181600116156101000203166002900480601f01602080910402602001604051908101604052809291908181526020018280546001816001161561010002031660029004801561098e5780601f106109635761010080835404028352916020019161098e565b820191906000526020600020905b81548152906001019060200180831161097157829003601f168201915b505050505081565b600080600060149054906101000a900460ff161515156109b557600080fd5b6109e18360056000878152602001908152602001600020600001600201546113fc90919063ffffffff16565b9050803410158015610a0c575082600560008681526020019081526020016000206000016003015410155b15610b3d57610a263460035461143490919063ffffffff16565b600381905550610a5883600560008781526020019081526020016000206000016003015461145090919063ffffffff16565b6005600086815260200190815260200160002060000160030181905550600354600660008060009054906101000a900473ffffffffffffffffffffffffffffffffffffffff1673ffffffffffffffffffffffffffffffffffffffff1673ffffffffffffffffffffffffffffffffffffffff168152602001908152602001600020819055507f8822d705ed7af5f1ee8352bdc64a282c883a6158bde34619a31afdf8cd3ec9f1846005600087815260200190815260200160002060000160030154604051808381526020018281526020019250505060405180910390a160019150610b42565b600091505b5092915050565b600060149054906101000a900460ff1681565b6000809054906101000a900473ffffffffffffffffffffffffffffffffffffffff1673ffffffffffffffffffffffffffffffffffffffff163373ffffffffffffffffffffffffffffffffffffffff16141515610bb757600080fd5b6000809054906101000a900473ffffffffffffffffffffffffffffffffffffffff1673ffffffffffffffffffffffffffffffffffffffff167ff8df31144d9c2f0f6b59d69b8b98abd5459d07f2742c4df920b25aae33c6482060405160405180910390a260008060006101000a81548173ffffffffffffffffffffffffffffffffffffffff021916908373ffffffffffffffffffffffffffffffffffffffff160217905550565b6005602052806000526040600020600091509050806000016080604051908101604052908160008201548152602001600182018054600181600116156101000203166002900480601f016020809104026020016040519081016040528092919081815260200182805460018160011615610100020316600290048015610d255780601f10610cfa57610100808354040283529160200191610d25565b820191906000526020600020905b815481529060010190602001808311610d0857829003601f168201915b5050505050815260200160028201548152602001600382015481525050908060040160009054906101000a900460ff16905082565b600160009054906101000a900473ffffffffffffffffffffffffffffffffffffffff1681565b6000809054906101000a900473ffffffffffffffffffffffffffffffffffffffff1673ffffffffffffffffffffffffffffffffffffffff163373ffffffffffffffffffffffffffffffffffffffff16141515610ddb57600080fd5b600060149054906101000a900460ff16151515610df757600080fd5b6001600060146101000a81548160ff0219169083151502179055507f6985a02210a168e66602d3235cb6db0e70f92b3ba4d376a33c0f3d9434bff62560405160405180910390a1565b6000610e4a611573565b600160009054906101000a900473ffffffffffffffffffffffffffffffffffffffff1673ffffffffffffffffffffffffffffffffffffffff163373ffffffffffffffffffffffffffffffffffffffff16141515610ea657600080fd5b600060149054906101000a900460ff16151515610ec257600080fd5b608060405190810160405280878152602001868152602001858152602001848152509050610eef81611469565b15610fb8578060056000888152602001908152602001600020600001600082015181600001556020820151816001019080519060200190610f3192919061159c565b50604082015181600201556060820151816003015590505060016005600088815260200190815260200160002060040160006101000a81548160ff0219169083151502179055507f4fc9d5acc453e78e01b205af5788a1c62f195c4b5cdc8eb8f1c670863b7e736a866040518082815260200191505060405180910390a160019150610fbd565b600091505b50949350505050565b6000809054906101000a900473ffffffffffffffffffffffffffffffffffffffff1681565b6000600160009054906101000a900473ffffffffffffffffffffffffffffffffffffffff1673ffffffffffffffffffffffffffffffffffffffff163373ffffffffffffffffffffffffffffffffffffffff1614151561104957600080fd5b600060149054906101000a900460ff1615151561106557600080fd5b600115156005600085815260200190815260200160002060040160009054906101000a900460ff16151514151561109b57600080fd5b8160056000858152602001908152602001600020600001600201819055507f76f50c1b11fef3f41d01f801097db5d7503b7194c5db4a88600d8a8be235db7c8383604051808381526020018281526020019250505060405180910390a16001905092915050565b60035481565b6060600080600115156005600086815260200190815260200160002060040160009054906101000a900460ff16151514151561114357600080fd5b6005600085815260200190815260200160002060000160010160056000868152602001908152602001600020600001600201546005600087815260200190815260200160002060000160030154828054600181600116156101000203166002900480601f0160208091040260200160405190810160405280929190818152602001828054600181600116156101000203166002900480156112255780601f106111fa57610100808354040283529160200191611225565b820191906000526020600020905b81548152906001019060200180831161120857829003601f168201915b505050505092509250925092509193909250565b60606000806002600354600454828054600181600116156101000203166002900480601f0160208091040260200160405190810160405280929190818152602001828054600181600116156101000203166002900480156112db5780601f106112b0576101008083540402835291602001916112db565b820191906000526020600020905b8154815290600101906020018083116112be57829003601f168201915b50505050509250925092509250909192565b606060028054600181600116156101000203166002900480601f0160208091040260200160405190810160405280929190818152602001828054600181600116156101000203166002900480156113855780601f1061135a57610100808354040283529160200191611385565b820191906000526020600020905b81548152906001019060200180831161136857829003601f168201915b5050505050905090565b60045481565b6000809054906101000a900473ffffffffffffffffffffffffffffffffffffffff1673ffffffffffffffffffffffffffffffffffffffff163373ffffffffffffffffffffffffffffffffffffffff161415156113f057600080fd5b6113f981611479565b50565b60008083141561140f576000905061142e565b818302905081838281151561142057fe5b0414151561142a57fe5b8090505b92915050565b6000818301905082811015151561144757fe5b80905092915050565b600082821115151561145e57fe5b818303905092915050565b6000808260400151119050919050565b600073ffffffffffffffffffffffffffffffffffffffff168173ffffffffffffffffffffffffffffffffffffffff16141515156114b557600080fd5b8073ffffffffffffffffffffffffffffffffffffffff166000809054906101000a900473ffffffffffffffffffffffffffffffffffffffff1673ffffffffffffffffffffffffffffffffffffffff167f8be0079c531659141344cd1fd0a4f28419497f9722a3daafe3b4186f6b6457e060405160405180910390a3806000806101000a81548173ffffffffffffffffffffffffffffffffffffffff021916908373ffffffffffffffffffffffffffffffffffffffff16021790555050565b608060405190810160405280600081526020016060815260200160008152602001600081525090565b828054600181600116156101000203166002900490600052602060002090601f016020900481019282601f106115dd57805160ff191683800117855561160b565b8280016001018555821561160b579182015b8281111561160a5782518255916020019190600101906115ef565b5b509050611618919061161c565b5090565b61163e91905b8082111561163a576000816000905550600101611622565b5090565b905600a165627a7a7230582055a0cf68a11ff69aaf2f8b1380d78cfb6c6631567189e848b1845e37ee393e210029",
  "source": "pragma solidity ^0.4.11;\r\nimport \"openzeppelin-solidity/contracts/ownership/Ownable.sol\";\r\nimport \"openzeppelin-solidity/contracts/lifecycle/Pausable.sol\";\r\nimport \"openzeppelin-solidity/contracts/math/SafeMath.sol\";\r\n\r\ncontract Store is Ownable, Pausable{\r\n    \r\n    using SafeMath for uint256;\r\n\r\n    address public storeOwner;\r\n    string public storeName;\r\n    uint256 public balance;\r\n    uint256 public productCount;\r\n    \r\n    \r\n    struct EntityStruct{\r\n        Product product;\r\n        bool isEntity;\r\n    }\r\n    \r\n    struct Product {\r\n        uint id;\r\n        string name;\r\n        uint price;\r\n        uint stock;\r\n    }\r\n    \r\n    mapping(uint => EntityStruct) public products;\r\n    mapping (address => uint) pendingWithdrawals;\r\n    \r\n    // Events \r\n    \r\n    event ProductAdded(uint productId);\r\n    event ProductPriceUpdatedSuccessfully(uint productId, uint newPrice);\r\n    event ProductPurchaseSuccessful(uint productId, uint remainingStock);\r\n        \r\n    //Modifier\r\n\r\n     /**\r\n    * @dev Throws if called by any account other than owner.\r\n    */\r\n    modifier onlyStoreOwner {\r\n        require(msg.sender == storeOwner);\r\n        _;\r\n    }\r\n\r\n    ///Functions\r\n    \r\n    /**\r\n    * @notice Constructor\r\n    * @param _storeOwner Address of the owner of the Store\r\n    * @param _storeName Name of the store\r\n    */\r\n    constructor(address _storeOwner, string _storeName) public {\r\n        storeOwner = _storeOwner;\r\n        storeName = _storeName;\r\n        balance = 0;\r\n        productCount = 0;\r\n    }\r\n    \r\n    function isProductValid(Product product) private pure returns (bool isValid) {\r\n        return (product.price > 0 );\r\n    }     \r\n    \r\n    /**\r\n     * @notice Add a new product to the store\r\n     * @param _id Id of the new product\r\n     * @param _name Name of the new product\r\n     * @param _price Price of the new product on WEI\r\n     * @param _stock Initial stock of the new product\r\n     */\r\n    function addNewProduct(uint _id, string _name, uint _price, uint _stock) public onlyStoreOwner whenNotPaused returns (bool success) {\r\n        Product memory newProduct = Product(_id, _name, _price, _stock);\r\n        if (isProductValid(newProduct)) {\r\n            products[_id].product = newProduct;\r\n            products[_id].isEntity = true;\r\n            emit ProductAdded(_id);\r\n            return true;\r\n        }\r\n        return false;\r\n    }\r\n    \r\n    /**\r\n     * @notice Update a product price\r\n     * @param _id Product to be updated \r\n     * @param _price New Price for the product on WEI\r\n     */\r\n    function updateProductPrice(uint _id, uint _price) public onlyStoreOwner whenNotPaused returns (bool success){\r\n        require(products[_id].isEntity == true);\r\n        products[_id].product.price = _price;\r\n        emit ProductPriceUpdatedSuccessfully(_id,_price);\r\n        return true;\r\n    }\r\n    \r\n    /**\r\n     * @dev Get product by id\r\n     * @param _id Product Id      \r\n     */\r\n    function getProduct(uint _id) public view returns (string name, uint price, uint stock) {\r\n        require(products[_id].isEntity == true);\r\n        return (products[_id].product.name,\r\n                products[_id].product.price,\r\n                products[_id].product.stock);\r\n    }\r\n\r\n    /**\r\n     * @notice Buy a product\r\n     * @param _id Product to buy \r\n     * @param _quantity The number of product items\r\n     */\r\n    function buyProduct(uint _id, uint _quantity) public payable whenNotPaused returns (bool success) {\r\n        uint totalPrice = products[_id].product.price.mul(_quantity);\r\n        if (msg.value >= totalPrice && products[_id].product.stock >= _quantity) {\r\n            balance = balance.add(msg.value);  \r\n            products[_id].product.stock = products[_id].product.stock.sub(_quantity);         \r\n            pendingWithdrawals[owner] = balance;\r\n            emit ProductPurchaseSuccessful(_id, products[_id].product.stock);\r\n            return true;\r\n        }\r\n        return false;\r\n    }\r\n    \r\n    /**\r\n     * @notice Withdraw balance to the store owner\r\n     */\r\n    function withdraw() public onlyStoreOwner {\r\n        uint amount = pendingWithdrawals[owner];\r\n        pendingWithdrawals[owner] = 0;\r\n        balance = 0;\r\n        msg.sender.transfer(amount);\r\n    }\r\n    \r\n\r\n    function getStoreName() returns (string) {\r\n        return storeName;\r\n    }\r\n    \r\n     function getStoreInfo() view public returns (string, uint256, uint256) {\r\n        return (storeName, balance , productCount);\r\n    }\r\n \r\n   \r\n \r\n}",
  "sourcePath": "C:\\Users\\Rodrigo\\Documents\\Consensys\\react-auth\\contracts\\Store.sol",
  "compiler": {
    "name": "solc",
    "version": "0.4.24+commit.e67f0147.Emscripten.clang"
  },
  "schemaVersion": "2.0.1",
  "updatedAt": "2018-08-27T23:07:07.670Z"
}